:100000000C9462000C948A000C948A000C94610495
:100010000C948A000C948A000C948A000C948A0038
:100020000C948A000C948A000C948A000C94470467
:100030000C948A000C948A000C948A000C948A0018
:100040000C94A5030C948A000C9415040C94EF03F3
:100050000C948A000C948A000C948A000C948A00F8
:100060000C948A000C948A000000000024002700F1
:100070002A0000000000250028002B0000000000DE
:1000800023002600290004040404040404040202DA
:100090000202020203030303030301020408102007
:1000A0004080010204081020010204081020000012
:1000B0000008000201000003040700000000000027
:1000C0000000780911241FBECFEFD8E0DEBFCDBFFE
:1000D00025E0AEEDB4E001C01D92AF3AB207E1F702
:1000E00014E0A0E0B1E0E4E9F8E102C005900D926F
:1000F000AE3DB107D9F710E0C2E6D0E004C02197C9
:10010000FE010E943F0AC136D107C9F70E94A70429
:100110000C94480C0C940000833081F028F481305A
:1001200099F08230A9F008958730A9F08830C9F09D
:100130008430B1F4809180008F7D03C08091800075
:100140008F7780938000089584B58F7784BD08955C
:1001500084B58F7DFBCF8091B0008F778093B00006
:1001600008958091B0008F7DF9CFCF93DF93282F32
:1001700030E0F901E255FF4F8491F901E656FF4F57
:10018000D491F901EA57FF4FC491CC23A1F081111A
:100190000E948C00EC2FF0E0EE0FFF1FE458FF4FA1
:1001A000A591B491EC91ED2381E090E009F480E019
:1001B000DF91CF91089580E090E0FACF1F93CF9325
:1001C000DF93282F30E0F901E255FF4F8491F901C8
:1001D000E656FF4FD491F901EA57FF4FC491CC2363
:1001E000A9F0162F81110E948C00EC2FF0E0EE0F89
:1001F000FF1FEE58FF4FA591B4918FB7F894EC9183
:10020000111108C0D095DE23DC938FBFDF91CF9111
:100210001F910895DE2BF8CFCF93DF9390E0FC0180
:10022000E656FF4F24918A579F4FFC018491882303
:10023000D1F090E0880F991FFC01E859FF4FA5917C
:10024000B491FC01EE58FF4FC591D491623071F426
:100250009FB7F8943C91822F809583238C93E881FB
:100260002E2B28839FBFDF91CF9108958FB7F894ED
:10027000EC912E2B2C938FBFF6CF2FB7F894609173
:100280000A0570910B0580910C0590910D052FBF0B
:100290000895AF92BF92CF92DF92EF92FF920F93A9
:1002A0001F93CF93DF936C017B018B01040F151F0C
:1002B000EB015E01AE18BF08C017D10759F0699174
:1002C000D601ED91FC910190F081E02DC6010995D8
:1002D000892B79F7C501DF91CF911F910F91FF9085
:1002E000EF90DF90CF90BF90AF900895FC014481D4
:1002F0005581608171818EE095E00C944901FC018B
:10030000538D448D252F30E0842F90E0821B930B7A
:10031000541710F0CF96089501970895FC01918D20
:10032000828D981761F0A28DAE0FBF2FB11D5D9623
:100330008C91928D9F5F9F73928F90E008958FEFC5
:100340009FEF08950F931F930E943D016093160540
:100350007093170580931805909319058EE095E02A
:100360000E948E0197FF1DC00E943D01009116055D
:10037000109117052091180530911905601B710B1C
:10038000820B930B00911205109113052091140517
:10039000309115056017710782079307F8F28FEF08
:1003A0009FEF1F910F910895FC01918D828D9817F9
:1003B00031F0828DE80FF11D858D90E008958FEF6B
:1003C0009FEF0895FC01918D228D892F90E0805C34
:1003D0009F4F821B91098F73992708958EE095E0B6
:1003E0000E94E20121E0892B09F420E0822F089588
:1003F00080E090E0892B29F00E94EE0181110C949D
:1004000000000895FC01A48DA80FB92FB11DA35AB7
:10041000BF4F2C91848D90E001968F739927848F24
:10042000A689B7892C93A089B1898C918370806447
:100430008C93938D848D981306C00288F389E02DE8
:1004400080818F7D80830895EF92FF920F931F9399
:10045000CF93DF93EC0181E0888F9B8D8C8D981377
:100460001AC0E889F989808185FF15C09FB7F89483
:10047000EE89FF896083E889F989808183708064CF
:1004800080839FBF81E090E0DF91CF911F910F911A
:10049000FF90EF900895F62E0B8D10E00F5F1F4F29
:1004A0000F731127E02E8C8D8E110CC00FB607FC38
:1004B000FACFE889F989808185FFF5CFCE010E94C6
:1004C0000202F1CFEB8DEC0FFD2FF11DE35AFF4F30
:1004D000F0829FB7F8940B8FEA89FB898081806254
:1004E000CFCFCF93DF93EC01888D8823B9F0AA8911
:1004F000BB89E889F9898C9185FD03C0808186FDDF
:100500000DC00FB607FCF7CF8C9185FFF2CF80812D
:1005100085FFEDCFCE010E940202E9CFDF91CF919E
:100520000895FC0101900020E9F73197AF01481BC5
:10053000590BBC018EE095E00C9449018F929F927B
:10054000AF92BF920F931F93CF93DF93CDB7DEB7D8
:10055000A1970FB6F894DEBF0FBECDBF19A24230EF
:1005600008F44AE08E010F5D1F4F842E912CB12CB0
:10057000A12CA50194010E94F709E62FB901CA0137
:10058000EA30F4F4E05DD801EE938D01232B242BA7
:10059000252B79F790E080E0109719F0CD010E94AB
:1005A0009102A1960FB6F894DEBF0FBECDBFDF91CA
:1005B000CF911F910F91BF90AF909F908F90089512
:1005C000E95CE1CFCF92DF92EF92FF92CF93DF937E
:1005D0006B017C016DE28EE095E00E942402EC014B
:1005E00066277727CB016C197D098E099F094AE0A0
:1005F0000E949E028C0F9D1FDF91CF91FF90EF9084
:10060000DF90CF9008950C949102CF93DF93D0E0C8
:10061000C0E0009719F00E949102EC0188E191E09E
:100620000E9491028C0F9D1FDF91CF9108950F932F
:100630001F93CF93DF93EC0188819981009759F044
:100640002A813B812617370730F081E0DF91CF9177
:100650001F910F9108958B016F5F7F4F0E946A0B6E
:10066000009759F0998388831B830A832C813D81ED
:10067000232B59F7FC011082E8CF80E0E7CFFC0183
:1006800080819181009711F00C94E10A0895EF9216
:10069000FF920F931F93CF93DF93EC017B0119829D
:1006A00018821B821A821D821C82FB01019000208D
:1006B000E9F731978F01061B170BB8010E9417034A
:1006C00028813981811113C02115310519F0C90123
:1006D0000E94E10A198218821D821C821B821A82E2
:1006E000DF91CF911F910F91FF90EF9008951D839F
:1006F0000C83B701C901DF91CF911F910F91FF903A
:10070000EF900C94410CCF93DF93EC0161307105B5
:1007100099F048F06230710591F06330710591F005
:1007200067E371E002C06BE171E0CE010E94470314
:10073000CE01DF91CF91089560E271E0F6CF6BE2D8
:1007400071E0F3CF61E371E0F0CF1F920F920FB62B
:100750000F9211242F933F938F939F93AF93BF9347
:1007600080910A0590910B05A0910C05B0910D05A3
:100770003091090523E0230F2D3758F50196A11D6F
:10078000B11D2093090580930A0590930B05A09352
:100790000C05B0930D058091050590910605A0917B
:1007A0000705B09108050196A11DB11D80930505AF
:1007B00090930605A0930705B0930805BF91AF91EC
:1007C0009F918F913F912F910F900FBE0F901F908F
:1007D000189526E8230F0296A11DB11DD2CF1F92B6
:1007E0000F920FB60F9211242F933F934F935F9365
:1007F0006F937F938F939F93AF93BF93EF93FF93E9
:100800008EE095E00E940202FF91EF91BF91AF91BF
:100810009F918F917F916F915F914F913F912F9118
:100820000F900FBE0F901F9018951F920F920FB64A
:100830000F9211242F938F939F93EF93FF93E09147
:100840001E05F0911F058081E0912405F09125059A
:1008500082FD1BC09081809127058F5F8F7320914F
:100860002805821741F0E0912705F0E0E25FFA4F9A
:10087000958F80932705FF91EF919F918F912F91F5
:100880000F900FBE0F901F9018958081F4CF1F928C
:100890000F920FB60F9211248F939F93EF93FF93B4
:1008A00091E09093E104E2EEF4E082818927828373
:1008B000FF91EF919F918F910F900FBE0F901F901E
:1008C00018951F920F920FB60F9211242F933F93FA
:1008D0004F935F936F937F938F939F93AF93BF9348
:1008E000CF93DF93EF93FF9381E08093E00488E060
:1008F0000E94B500EC0189E00E94B50021E0892B3F
:1009000009F420E081E0CD2B09F480E09091ED0422
:10091000981719F081E08093DF048091EE0482172C
:1009200019F081E08093DE04FF91EF91DF91CF9188
:10093000BF91AF919F918F917F916F915F914F91F7
:100940003F912F910F900FBE0F901F901895CF934E
:10095000DF93CDB7DEB72C970FB6F894DEBF0FBE8E
:10096000CDBF789484B5826084BD84B5816084BD38
:1009700085B5826085BD85B5816085BD80916E003D
:10098000816080936E00109281008091810082606E
:1009900080938100809181008160809381008091AB
:1009A00080008160809380008091B100846080939A
:1009B000B1008091B00081608093B00080917A0096
:1009C000846080937A0080917A00826080937A00BC
:1009D00080917A00816080937A0080917A008068AB
:1009E00080937A001092C100E0911E05F0911F05DE
:1009F00082E08083E0911A05F0911B051082E0915E
:100A00001C05F0911D0580E1808310922605E09180
:100A10002205F091230586E08083E0912005F09186
:100A20002105808180618083E0912005F09121057E
:100A3000808188608083E0912005F091210580818C
:100A400080688083E0912005F091210580818F7D71
:100A500080838FE591E00E94050362E088E00E94B8
:100A60000C0162E089E00E940C0161E08DE00E94CF
:100A70000C0161E087E00E940C0161E086E00E94C9
:100A80000C0160E08DE00E94DE0060E087E00E94E3
:100A9000DE0060E086E00E94DE00809168008160F8
:100AA0008093680080916B00836080936B008BE87B
:100AB00091E00E940503F89410928000109281004A
:100AC000109285001092840088E09DE39093890045
:100AD000809388008091810088608093810080915C
:100AE000810085608093810080916F008260809397
:100AF0006F0078948FEB91E00E94050388E00E94DC
:100B0000B50011E0892B09F410E01093ED0489E0A1
:100B10000E94B50021E0892B09F420E02093EE0427
:100B20001093EF042093F004109200051092FF043C
:100B30001092E20488EE91E00E94050388E092E0C2
:100B40000E94050389E392E00E940503412C84E0A2
:100B5000582E612C712C9AE0892E912CA12CB12C4D
:100B60008091E004882309F47DC00E943D016B015F
:100B70007C018091DF048823C1F18091F104909180
:100B8000F204A091F304B091F404A7019601281B8C
:100B9000390B4A0B5B0BDA01C901C397A105B105FB
:100BA00010F18091ED048093EF0488E00E94B5007D
:100BB00021E0892B09F420E02093ED04C092F10498
:100BC000D092F204E092F304F092F40485E692E00D
:100BD0000E9403038091ED04882309F46FC081E42F
:100BE00091E00E9405031092DF048091DE048823C7
:100BF000B9F18091F5049091F604A091F704B091B9
:100C0000F804A7019601281B390B4A0B5B0BDA018C
:100C1000C901C397A105B10508F18091EE04809345
:100C2000F00489E00E94B50021E0892B09F420E05E
:100C30002093EE04C092F504D092F604E092F704FB
:100C4000F092F8048DE792E00E9403038091EE0495
:100C50008823B9F188E491E00E9405031092DE0434
:100C60001092E0048EE095E00E94E201892B09F4E5
:100C7000A2C06AE171E0CE0107960E9447030E947C
:100C8000A20197FD21C089831A820B851C850F5F05
:100C90001F4FB801CE0107960E941703882379F3EE
:100CA0002F8138858B859C85BE016F5F7F4F820FBA
:100CB000931F0E94410C1C870B87E1CF8FE391E0CB
:100CC00090CF8DE491E0C8CFCF80D884C114D104F7
:100CD00031F00B851C85760101151105B1F40F81EA
:100CE00018850115110509F446C0F80181918F019D
:100CF000882309F440C0082E000C990B0E94270C91
:100D0000F80131978083F1CF710117013FEF231A6A
:100D1000330AF7018081082E000C990B0E94A50967
:100D2000892B91F7015011090C0D1D1DF8018081CF
:100D3000082E000C990B0E94A509892B31F00E1585
:100D40001F0518F001501109F1CFA8014F5F5F4F47
:100D50004E195F095C874B87CE14DF0420F4B7017E
:100D6000C6010E942F0CEF81F8858B859C85E80FCA
:100D7000F91F1082B4CF8B859C85892B09F423C27F
:100D80000F81188563E371E0C8010E94380C892B3C
:100D900009F06CC181E08093E20421E030E03093FF
:100DA00000052093FF0484E992E00E940503CE0130
:100DB00007960E943F030091FF0410910005013047
:100DC000110509F407C208F401C20230110509F443
:100DD00016C20330110509F43CC28091FF049091C2
:100DE000000580179107B9F185E594E00E9403039F
:100DF0006091FF0470910005CE0101960E9483036B
:100E0000CE0101960E947601CE0101960E943F0319
:100E10008DE694E00E940303B801CE0101960E9482
:100E20008303CE0101960E94760188E191E00E9441
:100E30009102CE0101960E943F031093000500939A
:100E4000FF040230110509F42DC208F424C2033056
:100E5000110509F432C28091E104882309F478C0B5
:100E60006091E4048DE00E94DE000E943D016B0170
:100E70007C018091FB049091FC04A091FD04B09151
:100E8000FE04A7019601281B390B4A0B5B0BDA0104
:100E9000C901803D9740A105B10508F442C080E436
:100EA00080937C0080917A00806480937A008091A6
:100EB0007A0086FDFCCFA0917800B091790028E8F7
:100EC00033E10E94380AA30192010E94190ACA0163
:100ED000B901645F714081099109A50194010E94E3
:100EE000190A3093FA042093F904C092FB04D092BB
:100EF000FC04E092FD04F092FE0482E794E00E947C
:100F000003036091F9047091FA04072E000C880B1A
:100F1000990B97FFD8C10E94E20281E493E00E94FE
:100F200005038091FF0490910005019721F489E861
:100F300094E00E9405038091FF04909100050297C0
:100F400029F46091E40487E00E94DE001092E1043D
:100F50000091FF04109100050230110508F4B7C19B
:100F60000330110509F4B8C18091E304882321F00E
:100F700061E00330110509F060E086E00E94DE00C8
:100F80000E943D016B017C01809101059091020559
:100F9000A0910305B0910405A7019601281B390B08
:100FA0004A0B5B0BDA01C901843F9140A105B105F1
:100FB00008F44DC0012B09F442C084EB94E00E9478
:100FC00003036091FF0470910005CE0101960E9419
:100FD0008303CE0101960E947601CE0101960E9404
:100FE0003F038DEB94E00E9403038091ED0488237E
:100FF00009F474C18BE591E00E94030389EC94E04D
:101000000E9403038091EE04882309F46AC18BE5F2
:1010100091E00E94030383ED94E00E94030360913A
:10102000F9047091FA04072E000C880B990B97FFB6
:101030005BC10E94E20281E493E00E940503C0923A
:101040000105D0920205E0920305F09204050E948A
:101050003D0180E090E0892B09F482CD0E94EE01F1
:10106000882309F47DCD0E9400007ACD6BEB72E0FD
:10107000C8010E94380C892B99F41092E204109256
:10108000E304109200051092FF0460E087E00E94E4
:10109000DE0060E086E00E94DE0082EC92E085CE19
:1010A0006AE973E0C8010E94380C892B09F08BC0F3
:1010B0008FED92E00E94050386EF92E00E94030309
:1010C0006091FF0470910005CE0101960E94830398
:1010D000CE0101960E94760188E191E00E94910282
:1010E000CE0101960E943F038EEF92E00E9403031F
:1010F0008091E204882309F456C084E591E00E94BF
:10110000050386E093E00E9403038091E3048823B3
:1011100009F44CC084E591E00E94050385E193E069
:101120000E9403038091ED04882309F442C081E406
:1011300091E00E94050385E293E00E940303809101
:10114000EE048823C9F188E491E00E94050383E35B
:1011500093E00E9403036091F9047091FA04072E52
:10116000000C880B990B97FF2AC00E94E20281E4D1
:1011700093E00E94050385E493E00E9403030E942C
:101180003D0128EE33E040E050E00E94F709CA013B
:10119000B9014AE00E949E028EE493E00E9405039A
:1011A00087E593E002CE88E591E0A9CF88E591E05C
:1011B000B3CF8FE391E0BDCF8DE491E0C6CF4AE09D
:1011C0000E949E02D4CF8DE693E0EFCD0091E20421
:1011D00010E003CE8091E204882309F440C080919E
:1011E000ED04811105C08091EE04882309F4F5CD4A
:1011F00081EA93E00E94050302E010E0EECD8091C9
:10120000E204882361F18091EE049091ED0499232A
:10121000B9F0882309F4E1CD0E943D016093E50413
:101220007093E6048093E7049093E80481E0809350
:10123000E30488EC93E00E94050303E010E0CDCDC9
:101240008111CBCD87EF93E00E94050301E010E010
:10125000C4CD8091E204811105C01092E30410E036
:1012600000E0BBCD0E943D01C090E504D090E604B3
:10127000E090E704F090E8046C197D098E099F095D
:10128000613177428105910508F4A7CD1092E304FE
:1012900086E294E0D9CF60E087E00E94DE0060E063
:1012A00086E008C061E087E00E94DE000E943D0108
:1012B00060E087E00E94DE00CECD61E087E00E9422
:1012C000DE0061E0EDCF4AE00E949E0226CE60E0A3
:1012D00087E00E94DE0048CE61E0FACF8DE591E024
:1012E0008BCE8DE591E095CE4AE00E949E02A3CE82
:1012F000EEE0F5E01382128288EE93E0A0E0B0E029
:1013000084839583A683B7838AE091E09183808369
:1013100085EC90E09587848784EC90E097878687BA
:1013200080EC90E0918B808B81EC90E0938B828BB2
:1013300082EC90E0958B848B86EC90E0978B868B8B
:10134000118E128E138E148E089591110C94AE0985
:10135000803219F089508550C8F708959927882759
:1013600008952F923F924F925F926F927F928F9249
:101370009F92AF92BF92CF92DF92EF92FF920F9324
:101380001F93CF93DF93CDB7DEB7CA1BDB0B0FB62E
:10139000F894DEBF0FBECDBF09942A8839884888EB
:1013A0005F846E847D848C849B84AA84B984C88481
:1013B000DF80EE80FD800C811B81AA81B981CE0F78
:1013C000D11D0FB6F894DEBF0FBECDBFED0108955D
:1013D000A29FB001B39FC001A39F700D811D112476
:1013E000911DB29F700D811D1124911D0895A1E2E0
:1013F0001A2EAA1BBB1BFD010DC0AA1FBB1FEE1F8F
:10140000FF1FA217B307E407F50720F0A21BB30BD9
:10141000E40BF50B661F771F881F991F1A9469F755
:1014200060957095809590959B01AC01BD01CF01B1
:101430000895052E97FB1EF400940E94300A57FD74
:1014400007D00E94F70907FC03D04EF40C94300A31
:1014500050954095309521953F4F4F4F5F4F0895E0
:1014600090958095709561957F4F8F4F9F4F089510
:101470000E94E809B7FF0895821B930B0895EE0FB1
:10148000FF1F0590F491E02D09940F931F93CF93C4
:10149000DF938230910510F482E090E0E091AD0599
:1014A000F091AE0530E020E0B0E0A0E0309799F494
:1014B0002115310509F44AC0281B390B24303105A8
:1014C000D8F58A819B816115710589F1FB019383B0
:1014D0008283FE0111C0408151810281138148172E
:1014E0005907E0F04817590799F4109761F01296E0
:1014F0000C93129713961C933296CF01DF91CF91E4
:101500001F910F9108950093AD051093AE05F4CF90
:101510002115310551F04217530738F0A901DB01BD
:101520009A01BD01DF01F801C1CFEF01F9CF90931E
:10153000AE058093AD05CDCFFE01E20FF31F819381
:1015400091932250310939832883D7CF2091AB055D
:101550003091AC05232B41F420910201309103011D
:101560003093AC052093AB0520910001309101012F
:101570002115310541F42DB73EB74091040150913A
:101580000501241B350BE091AB05F091AC05E2178A
:10159000F307A0F42E1B3F0B2817390778F0AC0196
:1015A0004E5F5F4F2417350748F04E0F5F1F509373
:1015B000AC054093AB05819391939FCFF0E0E0E0C1
:1015C0009CCFCF93DF930097E9F0FC013297138211
:1015D0001282A091AD05B091AE05ED0130E020E0A2
:1015E0001097A1F420813181820F931F2091AB05C8
:1015F0003091AC052817390709F061C0F093AC05AC
:10160000E093AB05DF91CF910895EA01CE17DF0794
:10161000E8F54A815B819E0141155105B1F7E90169
:10162000FB83EA8349915991C40FD51FEC17FD073D
:1016300061F4808191810296840F951FE90199835D
:101640008883828193819B838A83F0E0E0E0129615
:101650008D919C9113970097B9F52D913C9111971D
:10166000CD010296820F931F2091AB053091AC05FE
:101670002817390739F6309751F51092AE051092B8
:10168000AD05B093AC05A093AB05BCCFD383C283AB
:1016900040815181840F951FC817D90761F44E5FAF
:1016A0005F4F88819981480F591F518340838A81F8
:1016B0009B81938382832115310509F0B0CFF0938C
:1016C000AE05E093AD059ECFFD01DC01C0CF1382D6
:1016D0001282D7CFB0E0A0E0E0E7FBE00C94B309C2
:1016E0008C01009751F4CB010E94450A8C01C8017E
:1016F000CDB7DEB7E0E10C94CF09FC01E60FF71F90
:101700009C0122503109E217F30708F49DC0D9016A
:10171000CD91DC911197C617D70798F0C530D10548
:1017200030F3CE0104978617970708F3C61BD70B33
:101730002297C193D1936D937C93CF010E94E10ACC
:10174000D6CF5B01AC1ABD0A4C018C0E9D1EA09138
:10175000AD05B091AE05512C412CF12CE12C109728
:1017600031F58091AB059091AC058815990509F08C
:101770005CC04616570608F058C080910001909151
:101780000101009741F48DB79EB74091040150913B
:101790000501841B950BE817F90708F055C0F09375
:1017A000AC05E093AB05F90171836083A0CF8D9107
:1017B0009C91119712966C90129713967C901397A8
:1017C000A815B90559F56C0142E0C40ED11CCA1424
:1017D000DB0420F1AC014A195B09DA011296159776
:1017E00080F06282738251834083D9016D937C9330
:1017F000E114F10471F0D7011396FC93EE93129764
:1018000076CF22968C0F9D1FF90191838083F3017F
:10181000EFCFF093AE05E093AD0569CF48165906BA
:1018200008F42C017D01D3019ACFCB010E94450A17
:101830007C01009749F0AE01B8010E942F0CC8014D
:101840000E94E10A870153CF10E000E050CF9111D0
:10185000089581568A5108F4805285580895FB01F5
:10186000DC0102C001900D9241505040D8F708951C
:10187000FB01DC018D91019080190110D9F3990BC6
:101880000895FB01DC0101900D920020E1F708951D
:04189000F894FFCFFA
:101894000000AF05800000000000240249017F0120
:1018A4007102E2018E01D4010D0A0049444C450045
:1018B4004D4F4E49544F52494E4700414C455254A6
:1018C40000414C41524D00554E4B4E4F574E00492E
:1018D4004E414354495645004F50454E00434C4FEA
:1018E40053454400594553004E4F00310030003DEC
:1018F4003D3D2053656E73652D5468696E6B2D41B3
:1019040063742053797374656D20496E69746961D9
:101914006C6973696E67203D3D3D00504349206307
:101924006F6E6669677572656420666F7220706990
:101934006E7320443820285043494E543029206186
:101944006E6420443920285043494E5431290054B0
:10195400696D65723120636F6E666967757265645F
:1019640020666F7220312D7365636F6E6420696E1B
:1019740074657276616C730053797374656D206954
:101984006E697469616C69736564207375636365FA
:10199400737366756C6C790053656E6420274152CD
:1019A4004D2720746F2061726D20746865207379EF
:1019B4007374656D2C202744495341524D2720747C
:1019C4006F2064697361726D003D3D3D3D3D3D3D59
:1019D4003D3D3D3D3D3D3D3D3D3D3D3D3D3D3D3D33
:1019E4003D3D3D3D3D3D3D3D3D3D3D3D3D3D3D3D23
:1019F4003D3D3D3D0053454E534F523A20504952D0
:101A0400206465746563746F72203D200053454EF5
:101A1400534F523A20446F6F722073656E736F7226
:101A2400203D200053595354454D3A2041726D6571
:101A340064202D204D6F6E69746F72696E67206D1E
:101A44006F6465206163746976650044495341524B
:101A54004D0053595354454D3A2044697361726D96
:101A64006564202D2049646C65206D6F6465000AEF
:101A74003D3D3D2053595354454D205354415455F5
:101A840053203D3D3D0053746174653A200041721A
:101A94006D65643A2000416C61726D204163746924
:101AA40076653A20004D6F74696F6E2053656E73CE
:101AB4006F723A2000446F6F722053656E736F72B9
:101AC4003A200054656D70657261747572653A20D0
:101AD40000C2B04300557074696D653A20002073EC
:101AE40065636F6E6473003D3D3D3D3D3D3D3D3D51
:101AF4003D3D3D3D3D3D3D3D3D3D3D0A005359533A
:101B040054454D3A20556E6B6E6F776E20636F6D42
:101B14006D616E642E205573652041524D2C204416
:101B2400495341524D2C206F722053544154555304
:101B34000053544154453A20496E74727573696F69
:101B44006E206465746563746564202D20416C6542
:101B54007274206D6F64650053544154453A204DAE
:101B6400756C7469706C652073656E736F72732025
:101B7400747269676765726564202D20416C6172B7
:101B84006D206D6F64650053544154453A2053658C
:101B94006E736F727320636C656172202D205265C1
:101BA4007475726E696E6720746F206D6F6E6974E0
:101BB4006F72696E670053544154453A20416C6119
:101BC400726D2074696D656F7574202D2052657473
:101BD40075726E696E6720746F206D6F6E69746FB5
:101BE40072696E670053544154453A205472616ED1
:101BF400736974696F6E2066726F6D200020746F54
:101C0400200053454E534F523A2054656D7065720F
:101C14006174757265203D200054494D45523A2047
:101C2400506572696F64696320636865636B202D16
:101C34002053797374656D206F7065726174696F78
:101C44006E616C005354415455533A2000207C205B
:101C54004D6F74696F6E3A2000207C20446F6F7260
:0E1C64003A2000207C2054656D703A2000006C
:00000001FF
