:100000000C948F000C94B7000C94B7000C9423143C
:100010000C94B7000C94B7000C94B7000C94B70084
:100020000C94B7000C94B7000C94B7000C9409140E
:100030000C94B7000C94B7000C94B7000C94B70064
:100040000C9440130C94B7000C94D1130C94AB1384
:100050000C94B7000C94B7000C94B7000C94B70044
:100060000C94B7000C94B70008000000BE9224491D
:10007000123EABAAAA2ABECDCCCC4C3E00000080DA
:10008000BEABAAAAAA3E00000000BF000000803F4D
:100090000000000000084178D3BB4387D1133D190D
:1000A0000E3CC3BD4282AD2B3E68EC8276BED98F3A
:1000B000E1A93E4C80EFFFBE01C4FF7F3F0000007E
:1000C000000000000000240027002A0000000000BB
:1000D000250028002B000000000023002600290036
:1000E00004040404040404040202020202020303DE
:1000F00003030303010204081020408001020408E6
:100100001020010204081020000000080002010075
:10011000000304070000000000000000A4131124E5
:100120001FBECFEFD8E0DEBFCDBF18E0A0E0B1E04A
:10013000EAEFF3E302C005900D92A239B107D9F7B7
:1001400029E0A2E9B8E001C01D92A035B207E1F7AD
:1001500010E0CFE8D0E004C02197FE010E9478179C
:10016000CE38D107C9F70E949B130C94FB190C944D
:1001700000008330B1F060F08730E9F0883009F199
:10018000843021F5E0E8F0E080818F7D8083089560
:10019000813069F0823021F484B58F7D84BD08956B
:1001A0000895E0E8F0E080818F778083089584B53A
:1001B0008F7784BD0895E0EBF0E080818F778083B6
:1001C0000895E0EBF0E080818F7D80830895CF93E8
:1001D000DF93282F30E0F901E85FFE4F8491F901A9
:1001E000EC50FF4FD491F901E052FF4FC491CC2362
:1001F000B1F081110EC0EC2FF0E0EE0FFF1FEA52BC
:10020000FF4FA591B491EC91ED2331F490E080E0A3
:1002100008C00E94B900EFCF81E090E002C090E0FA
:1002200080E0DF91CF9108951F93CF93DF93282F24
:1002300030E0F901E85FFE4F8491F901EC50FF4F87
:100240001491F901E052FF4FC491CC23A9F0D62FAD
:10025000811116C0EC2FF0E0EE0FFF1FE453FF4FAB
:10026000A591B4918FB7F894D1110DC09C91E12F55
:10027000E095E923EC938FBFDF91CF911F91089513
:100280000E94B900E7CFEC91E12BEC93F4CFCF9330
:10029000DF9390E0FC01EC50FF4F249180529F4F80
:1002A000FC018491882319F190E0880F991FFC01CB
:1002B000EE53FF4FA591B491FC01E453FF4FC5915C
:1002C000D491662349F06230A9F08FB7F894EC918D
:1002D000E22BEC938FBF0BC09FB7F8948C91E22F69
:1002E000E0958E238C938881E823E8839FBFDF917C
:1002F000CF9108959FB7F8943C91822F80958323E6
:100300008C93E881E22BE8839FBFF1CF8E3008F019
:100310008E508770806480937C00EAE7F0E08081F3
:100320008064808380917A0086FDFCCF8091780084
:10033000909179000895789484B5826084BD84B5E5
:10034000816084BD85B5826085BD85B5816085BDD0
:10035000EEE6F0E0808181608083E1E8F0E01082E9
:10036000808182608083808181608083E0E8F0E02A
:10037000808181608083E1EBF0E080818460808314
:10038000E0EBF0E0808181608083EAE7F0E080814B
:1003900084608083808182608083808181608083AB
:1003A0008081806880831092C10008952FB7F894EF
:1003B000609148097091490980914A0990914B09CF
:1003C0002FBF089508950F931F93CF93DF93EC01F0
:1003D0000E94D601688779878A879B87E881F9819F
:1003E0000284F385E02DCE0109959923ACF40E9497
:1003F000D601088519852A853B85601B710B820B08
:10040000930B0C811D812E813F816017710782073C
:10041000930720F38FEF9FEFDF91CF911F910F9103
:100420000895DC01ED91FC910190F081E02D09959A
:100430000895DB0114964D915C9115976D917C9117
:10044000DC01ED91FC910280F381E02D0995089586
:10045000CF92DF92EF92FF920F931F93CF93DF9390
:100460008C01DB01D0E0C0E07A0181E0E81AF108FC
:10047000452BA1F0F80180819181FC01208131811F
:100480006D01FFEFCF1ADF0A6C91C801F9010995E0
:10049000892B21F02196A701D601E6CFCE01DF916D
:1004A000CF911F910F91FF90EF90DF90CF90089523
:1004B000019709F008956F3F7F4FE1F7E6EAF8E012
:1004C0001382128288EE93E0A0E0B0E084839583EB
:1004D000A683B7838CE291E09183808385EC90E0E2
:1004E0009587848784EC90E09787868780EC90E0FE
:1004F000918B808B81EC90E0938B828B82EC90E0EF
:10050000958B848B86EC90E0978B868B118E128E68
:10051000138E148ECFCFFC01938D848D981720F409
:10052000891B990B019708952FE330E0291B3109AE
:10053000820F932F911D0895FC01918D828D981744
:1005400061F0A28DAE0FBF2FB11D5D968C91928D83
:100550009F5F9F73928F90E008958FEF9FEF0895B4
:10056000FC01918D828D981731F0828DE80FF11D7D
:10057000858D90E008958FEF9FEF0895FC01218D08
:1005800030E0205C3F4F828DA901481B5109CA0110
:100590008F739927089586EA98E00E94BE0221E0B1
:1005A000892B09F420E0822F0895CF92DF92EF92F9
:1005B000FF921F93CF93DF93EC016A017B01122F0F
:1005C00060E079E08DE390E0A70196010E94421778
:1005D000215031094109510956954795379527957D
:1005E000E889F98982E08083C11481EED806E104AC
:1005F000F10421F0211580E1380798F0E889F989A4
:10060000108260E874E88EE190E0A70196010E94F4
:10061000421721503109410951095695479537959F
:100620002795EC85FD853083EE85FF852083188E28
:10063000EC89FD891083EA89FB8980818061808350
:10064000EA89FB89808188608083EA89FB898081CF
:1006500080688083EA89FB8980818F7D8083DF9138
:10066000CF911F91FF90EF90DF90CF900895FC0104
:10067000A48DA80FB92FB11DA35ABF4F2C91848D03
:1006800090E001968F739078848FA689B7892C9318
:10069000A089B1898C91837080648C93938D848DB3
:1006A000981308950288F389E02D80818F7D8083DF
:1006B000F8CF0F931F93CF93DF93EC0181E0888FE6
:1006C0009B8D8C8D9817B1F0062F8B8D90E0019645
:1006D0008F739078182F8C8D81131EC00FB607FC76
:1006E000FACFE889F989808185FFF5CFCE010E9494
:1006F0003703F1CFE889F989808185FFE5CF9FB77E
:10070000F894EE89FF896083E889F9898081837094
:10071000806480839FBF10C0EB8DEC0FFD2FF11D17
:10072000E35AFF4F00839FB7F8941B8FEA89FB8938
:100730008081806280839FBF81E090E0DF91CF91D4
:100740001F910F910895CF93DF93EC01888D811154
:1007500004C00DC00FB607FE0DC0EA89FB89808179
:1007600085FDF8CFA889B9898C9186FFF3CFDF91F9
:10077000CF910895808185FFF0CFE889F989808144
:1007800085FFEBCFCE010E943703E7CF80E090E0FA
:10079000892B21F00E94CB02811101C008950E9493
:1007A0000000FCCF8091A0089091A10881309105B4
:1007B00069F018F0039799F0089560E087E00E94CF
:1007C000140160E086E00E941401089560E087E073
:1007D0000E94140160E086E00E941401089561E027
:1007E00087E00E9414010E94D601E4E1F1E06383F6
:1007F00074838583968381E08183089580910001CD
:1008000081111FC0809101018823E9F020910E0120
:1008100030910F01253F3140C4F440910C015091BB
:100820000D01052E000C660B770B4F31510561054C
:1008300071056CF44F305105610571054CF480E091
:10084000089580E0089580E0089580E0089580E0B4
:10085000089580910001811127C030E020E040918F
:100860000E0150910F01453F514014F02F5F3F4F53
:1008700040910C0150910D01052E000C660B770B79
:100880004F315105610571052CF44F30510561055B
:10089000710514F42F5F3F4F882349F090910101B7
:1008A000992331F080E004C021E030E0D8CF80E02F
:1008B000223031050CF081E008958130910581F0FE
:1008C00050F08230910589F00397A1F060ED77E058
:1008D00080E090E0089564EF71E080E090E008959A
:1008E00068EE73E080E090E0089560ED77E080E0EE
:1008F00090E0089568EB7BE080E090E00895CF936E
:10090000DF9300D0CDB7DEB720914C0930914D096F
:100910002115310549F0CE010196821B930B0F90F2
:100920000F90DF91CF91089520E539E0F4CF8091C9
:10093000A0089091A1088230910588F00397A1F05A
:1009400080911501882331F08091A0089091A10831
:10095000039779F060E086E00E941401089560E05A
:1009600087E00E941401ECCF61E087E00E9414014F
:10097000E7CF61E086E00E9414010895CF92DF92F4
:10098000EF92FF920F931F93CF93DF93DC01CD90F3
:10099000DC901197C114D104D1F11496CD91DC9162
:1009A0002097A9F17C018601F8018081082E000CB6
:1009B000990B0E94BB15892B19F00F5F1F4FF4CFC5
:1009C0002197CC0DDD1D8881082E000C990B0E940B
:1009D000BB15892B29F0C017D10710F02197F3CF51
:1009E000AE014F5F5F4F401B510BD70115965C93D3
:1009F0004E931497C016D10698F0D701ED91FC9153
:100A0000119714968D919C91E80FF91F1082DF9138
:100A1000CF911F910F91FF90EF90DF90CF900895AD
:100A2000B801C6010E94E219E8CFCF93DF93FC0121
:100A3000C081D181209751F08881882339F0082E18
:100A4000000C990B0E94DA198993F6CFDF91CF91B0
:100A50000895DC0114962D913C911597232B69F490
:100A60006115710541F0FB018081882311F080E060
:100A7000089581E0089581E008956115710559F0A8
:100A8000FC01808191810E94EB1921E0892B09F002
:100A900020E0822F0895ED91FC91908181E09923CF
:100AA000C9F380E00895DF92EF92FF920F931F93B6
:100AB000CF93DF93CDB7DEB7A1970FB6F894DEBF23
:100AC0000FBECDBF7C01CB01BA01D22E19A221E00D
:100AD0002D1520F48E010F5D1F4F0EC00F2EFAE072
:100AE000DF2EF02DF7CFE95CD801EE938D01611573
:100AF00071058105910579F02D2D30E050E040E041
:100B00000E944217E62F622F732F842F952FEA3011
:100B100054F7E05DE9CF1097F9F0FD010190002056
:100B2000E9F73197AF014A1B5B0BD701ED91FC91BF
:100B30000280F381E02DB801C7010995A1960FB697
:100B4000F894DEBF0FBECDBFDF91CF911F910F9103
:100B5000FF90EF90DF90089590E080E0EFCF2115B7
:100B6000310549F4DC01ED91FC910190F081E02D1B
:100B7000642F099508950E9453050895CF92DF923E
:100B8000EF92FF920F931F93CF93DF93EC016A01D3
:100B90007B012115310581F4E881F9810190F08113
:100BA000E02D642F0995DF91CF911F910F91FF9058
:100BB000EF90DF90CF9008952A303105C1F4FF20E7
:100BC00024F02AE00E945305EECF6DE20E9411024C
:100BD0008C0144275527BA014C195D096E097F091C
:100BE0002AE0CE010E945305800F911FDCCF0E94A6
:100BF0005305D9CF9A01AB01770F660B770B0E9493
:100C0000BE050895DC01ED91FC910280F381E02D99
:100C100042E050E06AE371E0099508950F931F9355
:100C2000CF93DF93EC010E94AF058C01CE010E94AF
:100C30000206800F911FDF91CF911F910F910895B0
:100C40000F931F93CF93DF93EC010E94FA058C0161
:100C5000CE010E940206800F911FDF91CF911F915C
:100C60000F9108950F931F93CF93DF93EC010E9490
:100C700019028C01CE010E940206800F911FDF91A4
:100C8000CF911F910F9108956115710581F0FB01BE
:100C900001900020E9F73197AF01461B570BDC01AB
:100CA000ED91FC910280F381E02D0995089590E08B
:100CB00080E008950F931F93CF93DF93EC010E9480
:100CC00044068C01CE010E940206800F911FDF9125
:100CD000CF911F910F9108956DE371E086EA98E03E
:100CE0000E945A0669E571E086EA98E00E945A0679
:100CF0006EE771E086EA98E00E945A066BEA71E0BE
:100D000086EA98E00E945A0664ED71E086EA98E06F
:100D10000E945A0667EF71E086EA98E00E945A0640
:100D20006EE172E086EA98E00E945A0660E572E0A1
:100D300086EA98E00E945A0662E772E086EA98E046
:100D40000E945A0664E972E086EA98E00E945A0618
:100D50000895F89410928000E1E8F0E0108210927B
:100D600085001092840088E09DE390938900809331
:100D70008800808188608083808185608083EFE641
:100D8000F0E080818260808378948091200190914E
:100D900021011816190634F460EB72E086EA98E037
:100DA0000E945A060895E8E6F0E080818160808321
:100DB000EBE6F0E080818360808380912001909158
:100DC00021011816190634F469ED72E086EA98E0FC
:100DD0000E945A06089526E040E052EC61E070E07F
:100DE00086EA98E00E94D5026DE073E086EA98E01A
:100DF0000E945A0662E088E00E94470162E089E0B2
:100E00000E94470161E08DE00E94470161E087E0B8
:100E10000E94470161E086E00E94470160E08DE0AA
:100E20000E94140160E087E00E94140160E086E007
:100E30000E9414010E94D3060E94A90688E00E9425
:100E4000E70021E0892B09F420E02093000189E0EC
:100E50000E94E70021E0892B09F420E0E0E0F1E0C6
:100E600021838081828323831092A1081092A0089D
:100E7000E4E1F1E0108281E0838781E090E09587F2
:100E8000848769E373E086EA98E00E945A0669E580
:100E900073E086EA98E00E945A066EE873E086EAFC
:100EA00098E00E945A0608950E94EB0608950F9359
:100EB0001F93CF93DF93EC018B016F5F7F4F88818E
:100EC00099810E941D19009751F0998388831B8393
:100ED0000A8381E0DF91CF911F910F91089580E007
:100EE000F9CFCF93DF93EC0128813981232B29F0AF
:100EF0002A813B812617370770F4CE010E945707DD
:100F0000882351F08C819D81892B49F4E881F981F6
:100F1000108281E001C081E0DF91CF91089581E0EE
:100F2000FBCFEF92FF920F931F93CF93DF93FC01C0
:100F3000C481D581C40FD51F6115710501F1452B01
:100F400041F481E0DF91CF911F910F91FF90EF90DD
:100F500008957B018C01BE010E947107882391F3E3
:100F6000F8012081318184819581B701820F931F1F
:100F70000E94F419F801D583C48381E0E3CF80E0B7
:100F8000E1CFCF93DF9300D0CDB7DEB769831A826C
:100F900041E050E0BE016F5F7F4F0E9491070F90CC
:100FA0000F90DF91CF9108956115710559F0FB0104
:100FB00001900020E9F73197AF01461B570B0E94C3
:100FC0009107089580E00895CF93DF93EC01888125
:100FD0009981009711F00E940215198218821D82D2
:100FE0001C821B821A82DF91CF910895CF93DF93E9
:100FF000EC016115710561F0FB0101900020E9F73A
:101000003197AF01461B570B0E949107811103C016
:10101000CE010E94E407CE01DF91CF910895CF93D6
:10102000DF93EC01FB0144815581608171810E9455
:101030009107882321F0CE01DF91CF910895CE0151
:101040000E94E407F8CFEF92FF920F931F93CF9384
:10105000DF93EC017B018A01BA010E9471078823AA
:1010600079F01D830C83B701888199810E94F4195E
:10107000CE01DF91CF911F910F91FF90EF900895D6
:10108000CE010E94E407F4CFCF93DF93EC0161150A
:10109000710571F0FB0101900020E9F73197AF0174
:1010A000461B570B0E942308CE01DF91CF91089574
:1010B0000E94E407F9CFFC01118210821382128290
:1010C000158214826115710551F0FB010190002019
:1010D000E9F73197AF01461B570B0E94230808958B
:1010E0000F931F93CF93DF93EC018B016CE371E0BF
:1010F0000E945B08C8010E94E301992344F0682F15
:10110000CE010E94C107C8010E94E301F6CFCE01C3
:10111000DF91CF911F910F910895CF93DF93EC0151
:1011200061307105A1F058F062307105A9F06330AB
:101130007105B9F066ED73E00E945B0804C06AEBCC
:1011400073E00E945B08CE01DF91CF9108956FEBB1
:1011500073E00E945B08F7CF6AEC73E00E945B08C3
:10116000F2CF60ED73E00E945B08EDCFFC0180815F
:101170009181009711F00E9402150895CF92DF929D
:10118000EF92FF920F931F93CF93DF9300D000D085
:1011900000D0CDB7DEB70E94D6016B017C018091F3
:1011A000A2089091A308A091A408B091A508A70156
:1011B0009601281B390B4A0B5B0BDA01C9018838F1
:1011C0009341A105B10508F48CC080911F018111E4
:1011D00025C08091A0089091A10883309105F1F07D
:1011E00082309105D9F0019709F073C080912001F8
:1011F00090912101181619060CF06BC080919E0881
:1012000090919F08019690939F0880939E0806975F
:101210000CF45FC010929F0810929E0862EE73E07B
:1012200086EA98E00E9444066091A0087091A108A7
:10123000CE0101960E948D08BE016F5F7F4F86EA46
:1012400098E00E941902CE0101960E94B6086BEE4A
:1012500073E086EA98E00E944406809100018823AA
:1012600009F44EC06EED73E086EA98E00E944406F1
:1012700067EF73E086EA98E00E94440680910101DE
:10128000882309F440C060EE73E086EA98E00E948B
:10129000440667E074E086EA98E00E94440600E0B5
:1012A00011E0F801648575854AE050E086EA98E02F
:1012B0000E94FA0561E174E086EA98E00E94440623
:1012C000F801668577854AE050E086EA98E00E945A
:1012D0002006C092A208D092A308E092A408F0923F
:1012E000A50826960FB6F894DEBF0FBECDBFDF91DE
:1012F000CF911F910F91FF90EF90DF90CF900895C5
:1013000060EE73E0B1CF6EED73E0BFCF4F925F92AE
:101310006F927F928F929F92AF92BF92CF92DF9205
:10132000EF92FF920F931F93CF93DF93CDB7DEB76A
:101330002C970FB6F894DEBF0FBECDBF61E474E00A
:1013400086EA98E00E945A0668EC75E086EA98E022
:101350000E9444066091A0087091A108CE010796F2
:101360000E948D08BE01695F7F4F86EA98E00E9467
:101370001902CE0107960E94B60820919C08309170
:101380009D088091A0089091A1082817390709F0BD
:1013900041C086EA98E00E94020664E674E086EAAC
:1013A00098E00E94440680911401882309F452C0F9
:1013B00065E274E086EA98E00E945A066CE674E002
:1013C00086EA98E00E94440680911501882309F47A
:1013D00044C065E274E086EA98E00E945A066BE732
:1013E00074E086EA98E00E94440680912001909182
:1013F00021018130910509F4A5C18230910509F4DC
:10140000A8C1892B69F166ED73E086EA98E00E9435
:101410005A062CC068E574E086EA98E00E9444060B
:1014200060919C0870919D08CE0101960E948D08E4
:10143000BE016F5F7F4F86EA98E00E941902CE01DD
:1014400001960E94B6086FE874E086EA98E00E9470
:1014500044069FCF69E274E0ADCF69E274E0BBCF90
:1014600067E874E086EA98E00E945A0668EA74E049
:1014700086EA98E00E945A066EEE73E086EA98E0EB
:101480000E94440680910001882309F469C16EE23C
:1014900074E086EA98E00E94440668EB74E086EA0D
:1014A00098E00E9444060E94D60100E011E0F80195
:1014B000C480D580E680F7806C197D098E099F096C
:1014C00028EE33E040E050E00E944217BA01A90143
:1014D0002AE030E086EA98E00E94AF0568EC74E00C
:1014E00086EA98E00E945A066FEC74E086EA98E07B
:1014F0000E944406F8018181882309F434C165E320
:1015000074E086EA98E00E94440668EB74E086EA9C
:1015100098E00E9444060E94D60100E011E0F80124
:10152000C084D184E284F3846C197D098E099F09FB
:1015300028EE33E040E050E00E944217BA01A901D2
:101540002AE030E086EA98E00E94AF0568EC74E09B
:1015500086EA98E00E945A066BED74E086EA98E00D
:101560000E944406F8016485758541E050E086EAF2
:1015700098E00E94FA0569EE74E086EA98E00E941D
:101580004406F80184859585092E000CAA0BBB0B37
:101590008F319105A105B1050CF0E8C00F97A105A9
:1015A000B1050CF4EAC086EA98E00E9402066CE0FD
:1015B00075E086EA98E00E94440600E011E0F80138
:1015C000668577854AE050E086EA98E00E94FA0551
:1015D000F80186859785853F91400CF0D5C086EA55
:1015E00098E00E94020663E275E086EA98E00E94B5
:1015F0005A0667E375E086EA98E00E9444060E9476
:10160000D6014B015C010F2EF8EECF2EF3E0DF2E5A
:10161000E12CF12CF02DA70196010E94421729011F
:101620003A01C501B40120E83EEE46E350E00E94D5
:101630004217BA01A9012AE030E086EA98E00E9448
:10164000AF0562E975E086EA98E00E944406C301AE
:10165000B20120E13EE040E050E00E9442170F2E30
:10166000FCE38F2E912CA12CB12CF02DA50194011F
:101670000E944217BA01A9012AE030E086EA98E008
:101680000E94AF0560E475E086EA98E00E94440697
:10169000C301B201A50194010E944217AB01BC0134
:1016A0002AE030E086EA98E00E94AF0567ED72E03C
:1016B00086EA98E00E945A0663E475E086EA98E0BC
:1016C0000E9444060E94D60104E111E0F8018780DF
:1016D0009084A184B284681979098A099B09A701B9
:1016E00096010E944217BA01A9012AE030E086EA79
:1016F00098E00E94AF0567ED72E086EA98E00E94EC
:101700005A06F8018181811146C06AE972E086EAD1
:1017100098E00E945A062C960FB6F894DEBF0FBED2
:10172000CDBFDF91CF911F910F91FF90EF90DF9090
:10173000CF90BF90AF909F908F907F906F905F9071
:101740004F90089561E974E086EA98E00E945A0695
:101750008DCE6CE974E086EA98E00E945A0686CE47
:101760006CE274E096CE6AE374E0CBCE6DEE74E08A
:1017700086EA98E00E94440616CF6DEF74E086EA90
:1017800098E00E9444060FCF68E175E086EA98E091
:101790000E94440624CF0E94D601009117011091A7
:1017A00018012091190130911A01601B710B820BF5
:1017B000930B28EE33E040E050E00E9442176901AD
:1017C0007A0163E575E086EA98E00E9444062AE023
:1017D00030E0B701A60186EA98E00E94AF0567ED08
:1017E00072E086EA98E00E945A068FCF1F93CF934B
:1017F000DF9300D000D000D0CDB7DEB780911F01BD
:10180000811107C0809120019091210118161906BD
:10181000ACF564E675E0CE0101960E945B0810917C
:101820000001111135C0809101018823C1F180911F
:101830000E0190910F01853F9140CCF580910C01F4
:1018400090910D014F97DCF580910C0190910D0165
:101850000F97ECF1112371F08091200190912101FB
:10186000181619063CF4BE016F5F7F4F86EA98E0B8
:101870000E943206CE0101960E94B60826960FB647
:10188000F894DEBF0FBECDBFDF91CF911F910895B9
:101890006FE675E0CE0101960E94D407C4CF67E7DA
:1018A00075E0CE0101960E94D40711E0C0CF62E836
:1018B00075E0CE0101960E94D40711E0BFCF6BE81E
:1018C00075E0CE0101960E94D40711E0BDCF65E915
:1018D00075E0CE0101960E94D407BECFCF92DF9271
:1018E000EF92FF920F931F93CF93DF93CDB7DEB7A5
:1018F0002C970FB6F894DEBF0FBECDBF65EA75E03A
:1019000086EA98E00E945A066BEF75E086EA98E056
:101910000E9444066091A0087091A108CE0107962C
:101920000E948D08BE01695F7F4F86EA98E00E94A1
:101930003206CE0107960E94B60860EC75E086EA92
:1019400098E00E94440660919C0870919D08CE0129
:1019500001960E948D08BE016F5F7F4F86EA98E076
:101960000E943206CE0101960E94B60860ED75E035
:1019700086EA98E00E9444064091980850919908A0
:1019800060919A0870919B082AE030E086EA98E01E
:101990000E940E0664EE75E086EA98E00E94440616
:1019A0000E94D601AB01BC012AE030E086EA98E053
:1019B0000E940E0663EF75E086EA98E00E944406F6
:1019C0000E94D60104E111E0F801C780D084E184CF
:1019D000F284AB01BC014C195D096E097F092AE054
:1019E00030E086EA98E00E940E066BE774E086EA33
:1019F00098E00E944406F801648575854AE050E04D
:101A000086EA98E00E9420066BE076E086EA98E09D
:101A10000E944406F801838581112AC061EA75E0BD
:101A200086EA98E00E945A066DE176E086EA98E040
:101A30000E9444060E947F044AE050E0BC0186EA0E
:101A400098E00E94200665E972E086EA98E00E942C
:101A50005A062C960FB6F894DEBF0FBECDBFDF91AD
:101A6000CF911F910F91FF90EF90DF90CF9008954D
:101A70006EE975E0D5CF0F931F93CF93DF93CDB76A
:101A8000DEB7A4970FB6F894DEBF0FBECDBF20918E
:101A9000A0083091A1082817390709F45EC08C010D
:101AA000039709F43FC023303105E1F18091200113
:101AB0009091210118161906DCF5B801CE010D969A
:101AC0000E948D086091A0087091A108CE01079630
:101AD0000E948D0868E276E0CE0101960E945B08C4
:101AE000BE01695F7F4FCE0101960E940F0860E33F
:101AF00076E00E94F607BE01635F7F4F0E940F08E9
:101B0000BC0186EA98E00E943206CE0101960E944E
:101B1000B608CE0107960E94B608CE010D960E9427
:101B2000B60806C08091200190912101992304F507
:101B3000C8010297029708F450C01093A1080093BF
:101B4000A0080E94D60160931B0170931C01809332
:101B50001D0190931E010E94D203A4960FB6F89423
:101B6000DEBF0FBECDBFDF91CF911F910F910895C2
:101B7000B801CE014F960E948D086091A008709127
:101B8000A108CE0149960E948D0868E276E0CE0158
:101B900043960E945B08BE01675E7F4FCE0143966D
:101BA0000E940F0860E376E00E94F607BE01615EC6
:101BB0007F4F0E940F08BC0186EA98E00E9432061F
:101BC000CE0143960E94B608CE0149960E94B608FF
:101BD000CE014F960E94B608ABCF0E94F60BADCF58
:101BE000CF92DF92EF92FF920F931F93CF93DF93E9
:101BF000CDB7DEB72C970FB6F894DEBF0FBECDBFC2
:101C00000091A0081091A1080E94D6016B017C01EF
:101C10008091A0089091A1088130910509F458C0E5
:101C200008F44EC08230910509F47CC0039709F492
:101C30008AC08091A0089091A1088017910709F4AB
:101C4000E7C080919C0890919D088017910709F446
:101C5000BFC010939D0800939C08C0929808D09232
:101C60009908E0929A08F0929B0880912001909147
:101C7000210102970CF4D0C0B801CE0107960E9452
:101C80008D0864E676E0CE0101960E945B08BE01F5
:101C9000695F7F4FCE0101960E940F0860E876E0F1
:101CA0000E94F607BC0186EA98E00E943206CE0147
:101CB00001960E94B608CE0107960E94B608ACC0F5
:101CC00080911401882309F4B4CF01E010E0B1CF72
:101CD00080911401882309F469C080910001811169
:101CE00068C080910E0190910F01853F914024F0D2
:101CF00080910101811160C080910C0190910D01D2
:101D0000092E000CAA0BBB0B8F319105A105B10563
:101D10000CF055C00F97A105B1050CF08ACF02E079
:101D200010E087CF80911401882309F44BC00E94F2
:101D3000290481114AC00E94FE03882309F479CF47
:101D400001E010E076CF80911401811105C010925E
:101D5000150110E000E06DCF8091170190911801FE
:101D6000A0911901B0911A01A7019601281B390B06
:101D70004A0B5B0BDA01C90181319742A105B1051C
:101D800008F457CFE4E1F1E01182848595851816B7
:101D900019061CF001E010E04CCF65E376E086EA1E
:101DA00098E00E945A0601E010E043CF10E000E006
:101DB00040CF02E010E03DCF02E010E03ACF02E079
:101DC00010E037CF10E000E034CF03E010E031CF77
:101DD0008091980890919908A0919A08B0919B08D9
:101DE000C81AD90AEA0AFB0AC8010E945D04C6168D
:101DF000D706E806F90680F0C8010E943B0D8091E5
:101E0000A0089091A10890939D0880939C0804C01D
:101E100090939D0880939C082C960FB6F894DEBF93
:101E20000FBECDBFDF91CF911F910F91FF90EF902B
:101E3000DF90CF9008950F931F93CF93DF93CDB78B
:101E4000DEB72C970FB6F894DEBF0FBECDBF86EA83
:101E500098E00E94BE02892B59F42C960FB6F89494
:101E6000DEBF0FBECDBFDF91CF911F910F910895BF
:101E700066EA78E0CE0107960E947008CE010796C8
:101E80000E94BE0461E976E086EA98E00E9444067A
:101E9000BE01695F7F4F86EA98E00E943206CE015C
:101EA00007960E94150562ED73E0CE0107960E9429
:101EB00029058823F1F0E4E1F1E081E0808381E00D
:101EC00090E09093A1088093A00890939D08809340
:101ED0009C088485958599232CF4CE0107960E9451
:101EE000B608BBCF67E976E086EA98E00E945A061A
:101EF000F4CF6EEB76E0CE0107960E942905882389
:101F000009F104E111E0F801108211821092A10898
:101F10001092A00810929D0810929C0860E087E043
:101F20000E94140160E086E00E941401F80184859B
:101F30009585992394F265EC76E086EA98E00E9414
:101F40005A06CBCF62EE76E0CE0107960E942905B5
:101F5000882319F00E948609C0CF69EE76E0CE0191
:101F600007960E942905882379F0E4E1F1E081E0F9
:101F7000838782E090E09587848761EF76E086EA48
:101F800098E00E945A06A9CF61E177E0CE0107965A
:101F90000E942905882361F0E4E1F1E013861586AB
:101FA000148667E177E086EA98E00E945A0695CFAA
:101FB00064E477E0CE0107960E942905882371F03A
:101FC000E4E1F1E0138681E090E0958784876BE49B
:101FD00077E086EA98E00E945A067FCF68E873E0CF
:101FE000CE0107960E942905882319F00E946E0CE5
:101FF00074CF6AE677E0CE0107960E942905882310
:1020000019F00E946C0669CF6FE677E0CE01019669
:102010000E945B08BE01695F7F4FCE0101960E945E
:102020000F0868E877E00E94F607BC0186EA98E0AE
:102030000E943206CE0101960E94B6084ECFCF9282
:10204000DF92EF92FF920F931F93CF93DF93CDB761
:10205000DEB768970FB6F894DEBF0FBECDBF809194
:10206000940881110FC068960FB6F894DEBF0FBEBA
:10207000CDBFDF91CF911F910F91FF90EF90DF9037
:10208000CF9008950E94D6016B017C0110919308B6
:102090001123B9F08091040190910501A0910601EE
:1020A000B0910701A7019601281B390B4A0B5B0B66
:1020B000DA01C901C397A105B10530F510E010920E
:1020C0009308009192080023B9F080910801909143
:1020D0000901A0910A01B0910B01A7019601281BEB
:1020E000390B4A0B5B0BDA01C901C397A105B10596
:1020F00008F071C01092920810929408112309F40C
:10210000B2CF0E94F00DAFCFE0E0F1E0808182839A
:1021100088E00E94E70021E0892B09F420E0E0E05C
:10212000F1E02083C482D582E682F78280911F018C
:10213000811106C0222369F180911401882349F19D
:1021400080912001909121011816190614F522237F
:10215000A9F16EE274E0CE0143960E945B086DEA3D
:1021600077E0CE010D960E945B08BE016D5E7F4F49
:10217000CE010D960E940F08BC0186EA98E00E94ED
:102180003206CE010D960E94B608CE0143960E94FB
:10219000B60880910001882309F491CF00911401C1
:1021A0000023B9F010911F01111189CF80912001F6
:1021B0009091210199232CF4102F81CF6CE274E0CF
:1021C000CACF65EC77E086EA98E00E945A06102FA5
:1021D00076CF182F74CFE0E0F1E08181838389E02E
:1021E0000E94E70021E0892B09F420E0E0E0F1E023
:1021F0002183C086D186E286F3868091200190916A
:10220000210199233CF1222311F165E374E0CE0111
:1022100007960E945B086CED77E0CE0101960E9464
:102220005B08BE01695F7F4FCE0101960E940F08D7
:10223000BC0186EA98E00E943206CE0101960E9417
:10224000B608CE0107960E94B608102F53CF6AE356
:1022500074E0DDCF102F4ECF0F931F93CF93DF93FA
:10226000CDB7DEB762970FB6F894DEBF0FBECDBF15
:102270008C01CB01F8011182108213821282158227
:10228000148250E0BE016F5F7F4F0E948B15BE012C
:102290006F5F7F4FC8010E94440862960FB6F894A2
:1022A000DEBF0FBECDBFDF91CF911F910F9108957B
:1022B0004F925F926F927F928F929F92AF92BF9256
:1022C000CF92DF92EF92FF920F931F93CF93DF9302
:1022D000CDB7DEB7AA970FB6F894DEBF0FBECDBF5D
:1022E0000E94D6016B017C01809110019091110137
:1022F000A0911201B0911301A7019601281B390B7F
:102300004A0B5B0BDA01C901803D9740A105B1057D
:10231000B8F4AA960FB6F894DEBF0FBECDBFDF911A
:10232000CF911F910F91FF90EF90DF90CF90BF90D2
:10233000AF909F908F907F906F905F904F90089597
:102340008EE00E9486015C0100E011E0F8016485E6
:102350007585072E000C880B990B0E94DB152B014D
:102360003C01F80186849784B501BB0C880B990B5E
:102370000E94DB159B01AC0160E070EC8FE794E4F8
:102380000E94EB1720E030E040E85FE30E947E17F8
:102390009B01AC0160E070E080E89FE30E94EB17D6
:1023A0000E94A01820E030EE46E755E40E94EB17AB
:1023B0002FE03FEC4BE55BE30E947F179B01AC01F4
:1023C00060E070E080E89FE30E94EB1723E333E9CD
:1023D00048E853E40E947E170E945D18F801758753
:1023E00064878FE00E9486015C01F80197878687E9
:1023F000C08AD18AE28AF38A64857585072E000C2B
:10240000880B990B0E94DB15A30192010E947E1795
:102410006B017C0120E030E0A9010E94931818169E
:102420000CF071C011E020E030E040E85FE3C7014C
:10243000B6010E94931818160CF063C09501281974
:102440003909C90199230CF46CC020911F01211195
:1024500004C0111102C0C3973CF0809120019091FB
:10246000210102970CF062C060910C0170910D0186
:10247000CB01072E000CAA0BBB0B8F319105A105D8
:10248000B10524F40F97A105B1053CF4809120011A
:102490009091210199230CF080C060910E01709100
:1024A0000F01653FF1E07F070CF433CF80912001ED
:1024B0009091210199230CF42CCF4AE0CE0107968C
:1024C0000E942C1162E478E0CE0101960E945B0824
:1024D000BE01695F7F4FCE0101960E940F0866E53D
:1024E00078E00E94F607BC0186EA98E00E94320676
:1024F000CE0101960E94B608CE0107960E94B6084A
:1025000008CF10E09BCF11E020E030E040E85FEB27
:10251000C701B6010E94D41588230CF48FCF10E0B8
:102520008DCF88279927821B930B8FCF4AE0B50167
:10253000CE0185960E942C1160910C0170910D01C5
:1025400041E0CE014F960E942C1162EF77E0CE0160
:1025500049960E945B08BE01615E7F4FCE0149969D
:102560000E940F0869E078E00E94F607BE016B5DEB
:102570007F4F0E940F08BC0186EA98E00E94320655
:10258000CE0149960E94B608CE014F960E94B60829
:10259000CE0185960E94B60867CF41E0CE014396F2
:1025A0000E942C1165E178E0CE010D960E945B0837
:1025B000BE016D5E7F4FCE010D960E940F086BE24B
:1025C00078E00E94F607BC0186EA98E00E94320695
:1025D000CE010D960E94B608CE0143960E94B60821
:1025E0005CCFCF93DF9380919708811103C0DF9177
:1025F000CF910895C4E1D1E06A818DE00E94140179
:102600000E94581120919508309196082F5F3F4FF6
:1026100030939608209395088B85882339F0C9015B
:102620006AE070E00E942E17892B81F08091A0084B
:102630009091A108019719F010929708D8CFC9017D
:102640006EE170E00E942E17892BB1F78091200176
:1026500090912101029784F367E678E086EA98E09A
:102660000E945A06E9CF0E941F100E941B0F0E9471
:10267000F00D0E94F1120E9497040E94BE08089576
:102680001F920F920FB60F9211240F931F932F9347
:102690003F934F935F936F937F938F939F93AF93EA
:1026A000BF93009148091091490920914A0930913E
:1026B0004B0990914709B901A8014F5F5F4F6F4FD8
:1026C0007F4F83E0890F8D3740F086E8890FB9018D
:1026D000A8014E5F5F4F6F4F7F4F80934709409334
:1026E00048095093490960934A0970934B098091B6
:1026F000430990914409A0914509B091460901967A
:10270000A11DB11D8093430990934409A0934509ED
:10271000B0934609BF91AF919F918F917F916F9137
:102720005F914F913F912F911F910F910F900FBE8D
:102730000F901F9018950E949B010E9454070E94C1
:1027400033130E94C603FBCF6FEF7FEF81E090E071
:102750000E94580208951F920F920FB60F921124F3
:102760002F933F934F935F936F937F938F939F9399
:10277000AF93BF93EF93FF9386EA98E00E943703ED
:10278000FF91EF91BF91AF919F918F917F916F9149
:102790005F914F913F912F910F900FBE0F901F901F
:1027A00018951F920F920FB60F9211242F938F93AB
:1027B0009F93AF93BF93EF93FF93E091B608F0918F
:1027C000B708808182FD14C0E6EAF8E0A689B789DF
:1027D0002C91818D8F5F8F73928D891771F0DF013E
:1027E000E18DF0E0EA55F74F258F59968C9305C09F
:1027F000E091BC08F091BD088081FF91EF91BF91FD
:10280000AF919F918F912F910F900FBE0F901F90BE
:1028100018951F920F920FB60F9211248F939F93CA
:10282000EF93FF9391E090939708E4E1F1E08281C8
:1028300089278283FF91EF919F918F910F900FBE17
:102840000F901F9018951F920F920FB60F921124A0
:102850002F933F934F935F936F937F938F939F93A8
:10286000AF93BF93CF93EF93FF9381E0809394084E
:1028700088E00E94E700C1E0892B09F4C0E089E00C
:102880000E94E70021E0892B09F420E080910001FB
:102890008C1719F081E080939308809101018217D1
:1028A00019F081E080939208FF91EF91CF91BF9151
:1028B000AF919F918F917F916F915F914F913F91D8
:1028C0002F910F900FBE0F901F9018950F931F938D
:1028D000CF93DF938230910510F482E090E0E09195
:1028E0004E09F0914F0930E020E0B0E0A0E03097D1
:1028F00099F42115310509F44AC0281B390B2430FD
:102900003105D8F58A819B816115710589F1FB013B
:1029100093838283FE0111C0408151810281138122
:1029200048175907E0F04817590799F4109761F0D4
:1029300012960C93129713961C933296CF01DF9147
:10294000CF911F910F91089500934E0910934F0955
:10295000F4CF2115310551F04217530738F0A90182
:10296000DB019A01BD01DF01F801C1CFEF01F9CF11
:1029700090934F0980934E09CDCFFE01E20FF31FD4
:10298000819391932250310939832883D7CF2091A5
:102990004C0930914D09232B41F4209124013091B1
:1029A000250130934D0920934C092091220130914B
:1029B00023012115310541F42DB73EB74091260181
:1029C00050912701241B350BE0914C09F0914D09E2
:1029D000E217F307A0F42E1B3F0B2817390778F0F6
:1029E000AC014E5F5F4F2417350748F04E0F5F1F55
:1029F00050934D0940934C09819391939FCFF0E000
:102A0000E0E09CCFCF93DF930097E9F0FC01329791
:102A100013821282A0914E09B0914F09ED0130E06E
:102A200020E01097A1F420813181820F931F209123
:102A30004C0930914D092817390709F061C0F0930E
:102A40004D09E0934C09DF91CF910895EA01CE172B
:102A5000DF07E8F54A815B819E0141155105B1F719
:102A6000E901FB83EA8349915991C40FD51FEC1703
:102A7000FD0761F4808191810296840F951FE90121
:102A800099838883828193819B838A83F0E0E0E04D
:102A900012968D919C9113970097B9F52D913C91C9
:102AA0001197CD010296820F931F20914C0930910E
:102AB0004D092817390739F6309751F510924F090B
:102AC00010924E09B0934D09A0934C09BCCFD3830B
:102AD000C28340815181840F951FC817D90761F4C3
:102AE0004E5F5F4F88819981480F591F5183408302
:102AF0008A819B81938382832115310509F0B0CFB0
:102B0000F0934F09E0934E099ECFFD01DC01C0CF49
:102B100013821282D7CF4532510520F4423010F093
:102B20000C949615FB011082CB010895BB274A3007
:102B300031F4992322F4BDE2909581959F4F0C9436
:102B4000A215BB27FB015527AA27880F991FAA1F8B
:102B5000A41710F0A41B83955051B9F7A05DAA33B8
:102B600008F0A95DA193009779F7B111B193119283
:102B7000CB010C94C41591110C94A316803219F05A
:102B800089508550C8F70895DC01FC01672F7191C9
:102B90007723E1F7329704C07C916D937083629143
:102BA000AE17BF07C8F308950E94161608F481E017
:102BB0000895E89409C097FB3EF490958095709530
:102BC00061957F4F8F4F9F4F9923A9F0F92F96E979
:102BD000BB279395F695879577956795B795F111EE
:102BE000F8CFFAF4BB0F11F460FF1BC06F5F7F4F8B
:102BF0008F4F9F4F16C0882311F096E911C077239D
:102C000021F09EE8872F762F05C0662371F096E8A5
:102C1000862F70E060E02AF09A95660F771F881F74
:102C2000DAF7880F9695879597F90895990F000818
:102C3000550FAA0BE0E8FEEF16161706E807F9078E
:102C4000C0F012161306E407F50798F0621B730B29
:102C5000840B950B39F40A2661F0232B242B252BAA
:102C600021F408950A2609F4A140A6958FEF811D4D
:102C7000811D08950E94AF1638F00E94B61620F00C
:102C8000952311F00C94A6160C94AC1611240C94F8
:102C9000F1160E94CE1670F3959FC1F3950F50E088
:102CA000551F629FF001729FBB27F00DB11D639FFE
:102CB000AA27F00DB11DAA1F649F6627B00DA11DA4
:102CC000661F829F2227B00DA11D621F739FB00D4A
:102CD000A11D621F839FA00D611D221F749F3327BA
:102CE000A00D611D231F849F600D211D822F762F53
:102CF0006A2F11249F5750409AF0F1F088234AF030
:102D0000EE0FFF1FBB1F661F771F881F915050409B
:102D1000A9F79E3F510580F00C94A6160C94F1166D
:102D20005F3FE4F3983ED4F3869577956795B79522
:102D3000F795E7959F5FC1F7FE2B880F911D96953C
:102D4000879597F9089599278827089597F99F6798
:102D500080E870E060E008959FEF80EC0895002423
:102D60000A941616170618060906089500240A94F0
:102D700012161306140605060895092E0394000C76
:102D800011F4882352F0BB0F40F4BF2B11F460FF05
:102D900004C06F5F7F4F8F4F9F4F089557FD90582E
:102DA000440F551F59F05F3F71F04795880F97FB0F
:102DB000991F61F09F3F79F08795089512161306C9
:102DC0001406551FF2CF4695F1DF08C016161706F8
:102DD0001806991FF1CF869571056105089408952D
:102DE000E894BB2766277727CB0197F908952F92A0
:102DF0003F924F925F926F927F928F929F92AF928B
:102E0000BF92CF92DF92EF92FF920F931F93CF93D7
:102E1000DF93CDB7DEB7CA1BDB0B0FB6F894DEBF6E
:102E20000FBECDBF09942A88398848885F846E8494
:102E30007D848C849B84AA84B984C884DF80EE80DE
:102E4000FD800C811B81AA81B981CE0FD11D0FB6E7
:102E5000F894DEBF0FBECDBFED01089597FB072E9E
:102E600016F4009407D077FD09D00E94641707FC80
:102E700005D03EF4909581959F4F0895709561958A
:102E80007F4F0895A1E21A2EAA1BBB1BFD010DC0A6
:102E9000AA1FBB1FEE1FFF1FA217B307E407F5070A
:102EA00020F0A21BB30BE40BF50B661F771F881FE6
:102EB000991F1A9469F760957095809590959B017C
:102EC000AC01BD01CF010895AA1BBB1B51E107C096
:102ED000AA1FBB1FA617B70710F0A61BB70B881FAA
:102EE000991F5A95A9F780959095BC01CD01089539
:102EF000EE0FFF1F0590F491E02D09945058BB2769
:102F0000AA270E9496170C94BD160E94AF1638F09F
:102F10000E94B61620F039F49F3F19F426F40C9461
:102F2000AC160EF4E095E7FB0C94A616E92F0E9470
:102F3000CE1658F3BA17620773078407950720F077
:102F400079F4A6F50C94F0160EF4E0950B2EBA2F3A
:102F5000A02D0B01B90190010C01CA01A00111249F
:102F6000FF27591B99F0593F50F4503E68F11A164B
:102F7000F040A22F232F342F4427585FF3CF4695DC
:102F800037952795A795F0405395C9F77EF41F16FE
:102F9000BA0B620B730B840BBAF09150A1F0FF0FC8
:102FA000BB1F661F771F881FC2F70EC0BA0F621FB4
:102FB000731F841F48F4879577956795B795F795A4
:102FC0009E3F08F0B0CF9395880F08F09927EE0F39
:102FD0009795879508950E94FF170C94BD160E943F
:102FE000B61658F00E94AF1640F029F45F3F29F062
:102FF0000C94A61651110C94F1160C94AC160E9468
:10300000CE1668F39923B1F3552391F3951B550B15
:10301000BB27AA2762177307840738F09F5F5F4FAB
:10302000220F331F441FAA1FA9F335D00E2E3AF0EA
:10303000E0E832D091505040E695001CCAF72BD002
:10304000FE2F29D0660F771F881FBB1F2617370753
:103050004807AB07B0E809F0BB0B802DBF01FF2785
:1030600093585F4F3AF09E3F510578F00C94A616A6
:103070000C94F1165F3FE4F3983ED4F38695779570
:103080006795B795F7959F5FC9F7880F911D96953E
:10309000879597F90895E1E0660F771F881FBB1F9A
:1030A000621773078407BA0720F0621B730B840B47
:1030B000BA0BEE1F88F7E09508950E946418689493
:1030C000B1110C94F11608950E94D61688F09F57FE
:1030D00098F0B92F9927B751B0F0E1F0660F771F3C
:1030E000881F991F1AF0BA95C9F714C0B13091F032
:1030F0000E94F016B1E008950C94F016672F782F17
:103100008827B85F39F0B93FCCF3869577956795F6
:10311000B395D9F73EF490958095709561957F4F62
:103120008F4F9F4F08950E94161608F48FEF089551
:1031300016F00C94E8180C94AC1668940C94A6162F
:103140000E94D616A8F39923C1F3AEF3DF93CF9371
:103150001F930F93FF92C92FDD2788232AF0219711
:10316000660F771F881FDAF720E030E040E85FEB5A
:103170009FE3883920F0803E38F021968F770E94B7
:103180007F17E8E6F0E004C00E947F17E5E9F0E071
:103190000E94F6188B01BE01EC01FB2E6F577109DE
:1031A0007595771F880B990B0E94DB1528E132E794
:1031B00041E35FE30E944916AF2D9801AE01FF90F5
:1031C0000F911F91CF91DF910E9496170C94BD161D
:1031D0009F3F31F0915020F4879577956795B7958B
:1031E000880F911D9695879597F90895DF93CF9352
:1031F0001F930F93FF92EF92DF927B018C016894F3
:1032000006C0DA2EEF010E944916FE01E894A5914E
:103210002591359145915591A6F3EF010E9496179E
:10322000FE019701A801DA9469F7DF90EF90FF9013
:103230000F911F91CF91DF910895B0E0A0E0E3E2FC
:10324000F9E10C94F9168C01009751F4CB010E941E
:1032500066148C01C801CDB7DEB7E0E10C941517F8
:10326000FC01E60FF71F9C0122503109E217F3071A
:1032700008F49DC0D901CD91DC911197C617D707ED
:1032800098F0C530D10530F3CE0104978617970723
:1032900008F3C61BD70B2297C193D1936D937C93F0
:1032A000CF010E940215D6CF5B01AC1ABD0A4C01BA
:1032B0008C0E9D1EA0914E09B0914F09512C412CAE
:1032C000F12CE12C109731F580914C0990914D092A
:1032D0008815990509F05CC04616570608F058C0D5
:1032E0008091220190912301009741F48DB79EB700
:1032F0004091260150912701841B950BE817F9078F
:1033000008F055C0F0934D09E0934C09F901718321
:103310006083A0CF8D919C91119712966C9012971B
:1033200013967C901397A815B90559F56C0142E0E6
:10333000C40ED11CCA14DB0420F1AC014A195B098C
:10334000DA011296159780F062827382518340836E
:10335000D9016D937C93E114F10471F0D7011396B8
:10336000FC93EE93129776CF22968C0F9D1FF90156
:1033700091838083F301EFCFF0934F09E0934E09DF
:1033800069CF4816590608F42C017D01D3019ACF64
:10339000CB010E9466147C01009749F0AE01B80190
:1033A0000E94E219C8010E940215870153CF10E064
:1033B00000E050CF9111089581568A5108F480524F
:1033C00085580895FB01DC0102C001900D92415027
:1033D0005040D8F70895FB01DC018D9101908019D0
:1033E0000110D9F3990B0895FB01DC0101900D92B6
:0A33F0000020E1F70895F894FFCFE4
:1033FA0000010000000000000000000000000000C2
:10340A0000000000000000000000000000000000B2
:10341A000100000050098000000000005903280242
:10342A008B02A303BE029C02B0020D0A000A3D3DB4
:10343A003D20415641494C41424C4520434F4D4D58
:10344A00414E4453203D3D3D0041524D2020202015
:10345A0020202D2041726D20746865206D6F6E6981
:10346A00746F72696E672073797374656D0044496D
:10347A005341524D2020202D2044697361726D20E2
:10348A007468652073797374656D20616E64207346
:10349A00746F7020616C61726D730053544154559E
:1034AA00532020202D20446973706C617920637544
:1034BA007272656E742073797374656D20737461AA
:1034CA0074757300564552424F534520202D2045AE
:1034DA006E61626C652064657461696C6564206CF8
:1034EA006F6767696E67004E4F524D414C2020202E
:1034FA002D20456E61626C65206E6F726D616C2065
:10350A006C6F6767696E67206C6576656C005155EC
:10351A00494554202020202D20456E61626C65208B
:10352A006D696E696D616C206C6F6767696E672083
:10353A00287761726E696E6773206F6E6C792900E5
:10354A004445425547202020202D2053686F77207C
:10355A00646562756720696E666F726D6174696F02
:10356A006E0048454C5020202020202D2053686FA3
:10357A0077207468697320636F6D6D616E64206C67
:10358A00697374003D3D3D3D3D3D3D3D3D3D3D3D05
:10359A003D3D3D3D3D3D3D3D3D3D3D3D3D3D0A00C1
:1035AA0054696D65723120636F6E666967757265FD
:1035BA006420666F7220312D7365636F6E642069B3
:1035CA006E74657276616C730050434920636F6E46
:1035DA006669677572656420666F722070696E73BA
:1035EA0020443820285043494E54302920616E64C3
:1035FA0020443920285043494E543129003D3D3D4D
:10360A0020486F6D65204D6F6E69746F72696E67C1
:10361A002053797374656D20496E697469616C69A8
:10362A0073696E67203D3D3D0053797374656D2063
:10363A00696E697469616C69736564207375636323
:10364A0065737366756C6C7900436F6D6D616E643A
:10365A00733A2041524D2C2044495341524D2C205B
:10366A005354415455532C20564552424F53452CDE
:10367A002051554945542C204445425547003D3D6B
:10368A003D3D3D3D3D3D3D3D3D3D3D3D3D3D3D3D60
:10369A003D3D3D3D3D3D3D3D3D3D3D3D3D3D3D3D50
:1036AA003D3D3D3D3D3D3D3D3D0049444C45004D80
:1036BA004F4E49544F52494E4700414C45525400CF
:1036CA00414C41524D00554E4B4E4F574E00310022
:1036DA0030005354415455533A2000207C204D6FFA
:1036EA0074696F6E3A2000207C2047617320446120
:1036FA006E6765723A2000207C2054656D703A200E
:10370A0000C2B043207C204761732052656164691E
:10371A006E673A2000594553004E4F00494E4143C7
:10372A005449564500534146450044414E47455287
:10373A00000A3D3D3D2053595354454D20535441B1
:10374A00545553203D3D3D00202850656E64696EF6
:10375A00673A200041726D65643A2000416C6172DB
:10376A006D204163746976653A20004C6F67204C7E
:10377A006576656C3A200051554945542028302910
:10378A00004E4F524D414C20283129005645524295
:10379A004F534520283229002D2D2D2053656E7355
:1037AA006F7273202D2D2D0020284C6173742063B5
:1037BA0068616E67653A2000732061676F29004768
:1037CA00617320416C6572743A200054656D7065AE
:1037DA007261747572653A2000C2B04300205B487A
:1037EA00494748205741524E494E475D00205B4C9D
:1037FA004F57205741524E494E475D00476173204B
:10380A004C6576656C3A2000205B5741524E494E12
:10381A00475D002D2D2D2053797374656D20496EF7
:10382A00666F202D2D2D00557074696D653A200044
:10383A006D200054696D6520696E2053746174654A
:10384A003A2000416C61726D204475726174696F2F
:10385A006E3A200054524947474552533A20004D88
:10386A006F74696F6E200047617344616E67657299
:10387A00200047617348696768200054656D704885
:10388A00696768200054656D704C6F7720004F4E51
:10389A00004F4646000A3D3D3D20444542554720DB
:1038AA00494E464F524D4154494F4E203D3D3D00F1
:1038BA0050656E64696E672053746174653A2000BE
:1038CA005374617465204368616E67652054696D3D
:1038DA00653A200043757272656E742054696D658D
:1038EA003A200054696D6520696E204375727265CD
:1038FA006E742053746174653A2000566572626F63
:10390A007365204C6F6767696E673A200046726577
:10391A00652052414D3A200053544154453A200003
:10392A00202D3E200053544154453A20416C617287
:10393A006D2074696D656F7574202D2052657475DC
:10394A00726E696E6720746F206D6F6E69746F7224
:10395A00696E670053544154453A204368616E6763
:10396A00652072657175657374656420746F2000D3
:10397A00202D206465626F756E63696E672E2E2E28
:10398A0000434D443E200053595354454D3A20417B
:10399A00726D6564202D204D6F6E69746F72696E49
:1039AA0067206D6F646520616374697665004449B8
:1039BA005341524D0053595354454D3A204469736B
:1039CA0061726D6564202D2049646C65206D6F6499
:1039DA00650053544154555300564552424F53457E
:1039EA000053595354454D3A20566572626F7365B8
:1039FA00206C6F6767696E6720656E61626C6564CB
:103A0A000051554945540053595354454D3A205194
:103A1A0075696574206D6F646520656E61626C6599
:103A2A006420286D696E696D616C206C6F676769C7
:103A3A006E6729004E4F524D414C0053595354451D
:103A4A004D3A204E6F726D616C206C6F6767696EBC
:103A5A006720656E61626C65640048454C5000459C
:103A6A0052524F523A20556E6B6E6F776E20636FCB
:103A7A006D6D616E64202700272E205479706520B1
:103A8A0048454C5020666F7220617661696C6162AC
:103A9A006C6520636F6D6D616E64732E0053454EC5
:103AAA00534F523A20504952206465746563746FCB
:103ABA0072203D2000414C4552543A204D6F7469A2
:103ACA006F6E2064657465637465640053454E5374
:103ADA004F523A204761732073656E736F72203DAF
:103AEA00200053454E534F523A2054656D7065720B
:103AFA006174757265203D2000C2B0433B20476166
:103B0A0073203D20005741524E494E473A20546592
:103B1A006D70657261747572652000C2B043206F62
:103B2A0075747369646520736166652072616E6776
:103B3A0065005741524E494E473A20476173206CFF
:103B4A006576656C20002061626F76652074687204
:103B5A006573686F6C640054494D45523A2050654C
:103B6A0072696F64696320636865636B202D2053F3
:103B7A00797374656D206F7065726174696F6E61B7
:023B8A006C00CD
:00000001FF
