:100000000C948F000C94B7000C94B7000C94F60C71
:100010000C94B7000C94B7000C94B7000C94B70084
:100020000C94B7000C94B7000C94B7000C94DC0C43
:100030000C94B7000C94B7000C94B7000C94B70064
:100040000C94130C0C94B7000C94A40C0C947E0C20
:100050000C94B7000C94B7000C94B7000C94B70044
:100060000C94B7000C94B70008000000BE9224491D
:10007000123EABAAAA2ABECDCCCC4C3E00000080DA
:10008000BEABAAAAAA3E00000000BF000000803F4D
:100090000000000000084178D3BB4387D1133D190D
:1000A0000E3CC3BD4282AD2B3E68EC8276BED98F3A
:1000B000E1A93E4C80EFFFBE01C4FF7F3F0000007E
:1000C000000000000000240027002A0000000000BB
:1000D000250028002B000000000023002600290036
:1000E00004040404040404040202020202020303DE
:1000F00003030303010204081020408001020408E6
:100100001020010204081020000000080002010075
:10011000000304070000000000000000770C112419
:100120001FBECFEFD8E0DEBFCDBF26E0A6E9B5E029
:1001300001C01D92A535B207E1F715E0A0E0B1E0DE
:10014000E4E7F4E202C005900D92A639B107D9F7B1
:1001500010E0CFE8D0E004C02197FE010E94950E88
:10016000CE38D107C9F70E946E0C0C9438120C944B
:1001700000008330B1F060F08730E9F0883009F199
:10018000843021F5E0E8F0E080818F7D8083089560
:10019000813069F0823021F484B58F7D84BD08956B
:1001A0000895E0E8F0E080818F778083089584B53A
:1001B0008F7784BD0895E0EBF0E080818F778083B6
:1001C0000895E0EBF0E080818F7D80830895CF93E8
:1001D000DF93282F30E0F901E85FFE4F8491F901A9
:1001E000EC50FF4FD491F901E052FF4FC491CC2362
:1001F000B1F081110EC0EC2FF0E0EE0FFF1FEA52BC
:10020000FF4FA591B491EC91ED2331F490E080E0A3
:1002100008C00E94B900EFCF81E090E002C090E0FA
:1002200080E0DF91CF9108951F93CF93DF93282F24
:1002300030E0F901E85FFE4F8491F901EC50FF4F87
:100240001491F901E052FF4FC491CC23A9F0D62FAD
:10025000811116C0EC2FF0E0EE0FFF1FE453FF4FAB
:10026000A591B4918FB7F894D1110DC09C91E12F55
:10027000E095E923EC938FBFDF91CF911F91089513
:100280000E94B900E7CFEC91E12BEC93F4CFCF9330
:10029000DF9390E0FC01EC50FF4F249180529F4F80
:1002A000FC018491882319F190E0880F991FFC01CB
:1002B000EE53FF4FA591B491FC01E453FF4FC5915C
:1002C000D491662349F06230A9F08FB7F894EC918D
:1002D000E22BEC938FBF0BC09FB7F8948C91E22F69
:1002E000E0958E238C938881E823E8839FBFDF917C
:1002F000CF9108959FB7F8943C91822F80958323E6
:100300008C93E881E22BE8839FBFF1CF8E3008F019
:100310008E508770806480937C00EAE7F0E08081F3
:100320008064808380917A0086FDFCCF8091780084
:10033000909179000895789484B5826084BD84B5E5
:10034000816084BD85B5826085BD85B5816085BDD0
:10035000EEE6F0E0808181608083E1E8F0E01082E9
:10036000808182608083808181608083E0E8F0E02A
:10037000808181608083E1EBF0E080818460808314
:10038000E0EBF0E0808181608083EAE7F0E080814B
:1003900084608083808182608083808181608083AB
:1003A0008081806880831092C10008952FB7F894EF
:1003B00060914D0670914E0680914F0690915006C7
:1003C0002FBF089508950F931F93CF93DF93EC01F0
:1003D0000E94D601688779878A879B87E881F9819F
:1003E0000284F385E02DCE0109959923ACF40E9497
:1003F000D601088519852A853B85601B710B820B08
:10040000930B0C811D812E813F816017710782073C
:10041000930720F38FEF9FEFDF91CF911F910F9103
:100420000895DC01ED91FC910190F081E02D09959A
:100430000895DB0114964D915C9115976D917C9117
:10044000DC01ED91FC910280F381E02D0995089586
:10045000CF92DF92EF92FF920F931F93CF93DF9390
:100460008C01DB01D0E0C0E07A0181E0E81AF108FC
:10047000452BA1F0F80180819181FC01208131811F
:100480006D01FFEFCF1ADF0A6C91C801F9010995E0
:10049000892B21F02196A701D601E6CFCE01DF916D
:1004A000CF911F910F91FF90EF90DF90CF90089523
:1004B000019709F008956F3F7F4FE1F7EBEAF5E010
:1004C0001382128288EE93E0A0E0B0E084839583EB
:1004D000A683B7838EE191E09183808385EC90E0E1
:1004E0009587848784EC90E09787868780EC90E0FE
:1004F000918B808B81EC90E0938B828B82EC90E0EF
:10050000958B848B86EC90E0978B868B118E128E68
:10051000138E148ECFCFFC01938D848D981720F409
:10052000891B990B019708952FE330E0291B3109AE
:10053000820F932F911D0895FC01918D828D981744
:1005400061F0A28DAE0FBF2FB11D5D968C91928D83
:100550009F5F9F73928F90E008958FEF9FEF0895B4
:10056000FC01918D828D981731F0828DE80FF11D7D
:10057000858D90E008958FEF9FEF0895FC01218D08
:1005800030E0205C3F4F828DA901481B5109CA0110
:100590008F73992708958BEA95E00E94BE0221E0AF
:1005A000892B09F420E0822F0895CF92DF92EF92F9
:1005B000FF921F93CF93DF93EC016A017B01122F0F
:1005C00060E079E08DE390E0A70196010E94730E50
:1005D000215031094109510956954795379527957D
:1005E000E889F98982E08083C11481EED806E104AC
:1005F000F10421F0211580E1380798F0E889F989A4
:10060000108260E874E88EE190E0A70196010E94F4
:10061000730E215031094109510956954795379577
:100620002795EC85FD853083EE85FF852083188E28
:10063000EC89FD891083EA89FB8980818061808350
:10064000EA89FB89808188608083EA89FB898081CF
:1006500080688083EA89FB8980818F7D8083DF9138
:10066000CF911F91FF90EF90DF90CF900895FC0104
:10067000A48DA80FB92FB11DA35ABF4F2C91848D03
:1006800090E001968F739078848FA689B7892C9318
:10069000A089B1898C91837080648C93938D848DB3
:1006A000981308950288F389E02D80818F7D8083DF
:1006B000F8CF0F931F93CF93DF93EC0181E0888FE6
:1006C0009B8D8C8D9817B1F0062F8B8D90E0019645
:1006D0008F739078182F8C8D81131EC00FB607FC76
:1006E000FACFE889F989808185FFF5CFCE010E9494
:1006F0003703F1CFE889F989808185FFE5CF9FB77E
:10070000F894EE89FF896083E889F9898081837094
:10071000806480839FBF10C0EB8DEC0FFD2FF11D17
:10072000E35AFF4F00839FB7F8941B8FEA89FB8938
:100730008081806280839FBF81E090E0DF91CF91D4
:100740001F910F910895CF93DF93EC01888D811154
:1007500004C00DC00FB607FE0DC0EA89FB89808179
:1007600085FDF8CFA889B9898C9186FFF3CFDF91F9
:10077000CF910895808185FFF0CFE889F989808144
:1007800085FFEBCFCE010E943703E7CF80E090E0FA
:10079000892B21F00E94CB02811101C008950E9493
:1007A0000000FCCF8091A5059091A60581309105B0
:1007B00081F030F082309105A9F00397F1F00895AF
:1007C00060E087E00E94140160E086E00E9414016E
:1007D000089560E087E00E94140160E086E00E94D6
:1007E0001401089561E087E00E9414010E94D6017F
:1007F00060E087E00E941401089561E087E00E94B4
:10080000140161E086E00E94140108958091A5051D
:100810009091A6058230910588F00397A1F0809110
:100820009B05882331F08091A5059091A60503973B
:1008300079F060E086E00E941401089560E087E0AE
:100840000E941401ECCF61E087E00E941401E7CF21
:1008500061E086E00E9414010895CF92DF92EF924A
:10086000FF920F931F93CF93DF93DC01CD90DC9029
:100870001197C114D104D1F11496CD91DC91209738
:10088000A9F17C018601F8018081082E000C990BEA
:100890000E94390D892B19F00F5F1F4FF4CF21975C
:1008A000CC0DDD1D8881082E000C990B0E94390D9E
:1008B000892B29F0C017D10710F02197F3CFAE0193
:1008C0004F5F5F4F401B510BD70115965C934E93C2
:1008D0001497C016D10698F0D701ED91FC911197AD
:1008E00014968D919C91E80FF91F1082DF91CF91A2
:1008F0001F910F91FF90EF90DF90CF900895B80176
:10090000C6010E941F12E8CFCF93DF93FC01C08184
:10091000D181209751F08881882339F0082E000C6E
:10092000990B0E9417128993F6CFDF91CF9108950A
:10093000DC0114962D913C911597232B69F46115D8
:10094000710541F0FB018081882311F080E008955A
:1009500081E0089581E008956115710559F0FC0169
:10096000808191810E94281221E0892B09F020E0EA
:10097000822F0895ED91FC91908181E09923C9F334
:1009800080E008950F931F93CF93DF93EC018B01C9
:100990006F5F7F4F888199810E945A11009751F0B3
:1009A000998388831B830A8381E0DF91CF911F9114
:1009B0000F91089580E0F9CFCF93DF93EC01288168
:1009C0003981232B29F02A813B812617370770F4C0
:1009D000CE010E94C204882351F08C819D81892B15
:1009E00049F4E881F981108281E001C081E0DF9162
:1009F000CF91089581E0FBCFEF92FF920F931F9369
:100A0000CF93DF93FC01C481D581C40FD51F61153D
:100A1000710501F1452B41F481E0DF91CF911F91E8
:100A20000F91FF90EF9008957B018C01BE010E9411
:100A3000DC04882391F3F801208131818481958140
:100A4000B701820F931F0E943112F801D583C4832E
:100A500081E0E3CF80E0E1CFCF93DF9300D0CDB74B
:100A6000DEB769831A8241E050E0BE016F5F7F4FBD
:100A70000E94FC040F900F90DF91CF910895CF93C7
:100A8000DF93EC0188819981009711F00E94D110C9
:100A9000198218821D821C821B821A82DF91CF91DB
:100AA0000895EF92FF920F931F93CF93DF93EC0182
:100AB0007B018A01BA010E94DC04882379F01D833E
:100AC0000C83B701888199810E943112CE01DF9198
:100AD000CF911F910F91FF90EF900895CE010E944A
:100AE0003F05F4CFFC0180819181009711F00E94B5
:100AF000D1100895FC011182108213821282158296
:100B000014826115710551F0FB0101900020E9F795
:100B10003197AF01461B570B0E94510508950F9363
:100B20001F93CF93DF93EC018B0162E571E00E948C
:100B30007A05C8010E94E301992344F0682FCE0191
:100B40000E942C05C8010E94E301F6CFCE01DF917F
:100B5000CF911F910F910895CF93DF93EC016130F6
:100B60007105A1F058F062307105A9F0633071058C
:100B7000B9F068E471E00E947A0504C06CE271E0AB
:100B80000E947A05CE01DF91CF91089561E371E073
:100B90000E947A05F7CF6CE371E00E947A05F2CFEC
:100BA00062E471E00E947A05EDCFDF92EF92FF924E
:100BB0000F931F93CF93DF93CDB7DEB7A1970FB6F7
:100BC000F894DEBF0FBECDBF7C01CB01BA01D22E9F
:100BD00019A221E02D1520F48E010F5D1F4F0EC0CC
:100BE0000F2EFAE0DF2EF02DF7CFE95CD801EE935F
:100BF0008D01611571058105910579F02D2D30E08C
:100C000050E040E00E94730EE62F622F732F842F76
:100C1000952FEA3054F7E05DE9CF1097F9F0FD0128
:100C200001900020E9F73197AF014A1B5B0BD70118
:100C3000ED91FC910280F381E02DB801C701099587
:100C4000A1960FB6F894DEBF0FBECDBFDF91CF9156
:100C50001F910F91FF90EF90DF90089590E080E05A
:100C6000EFCF2115310549F4DC01ED91FC910190A4
:100C7000F081E02D642F099508950E94D50508950F
:100C8000CF92DF92EF92FF920F931F93CF93DF9358
:100C9000EC016A017B012115310581F4E881F981BC
:100CA0000190F081E02D642F0995DF91CF911F9184
:100CB0000F91FF90EF90DF90CF9008952A3031058B
:100CC000C1F4FF2024F02AE00E94D505EECF6DE2AA
:100CD0000E9411028C0144275527BA014C195D0965
:100CE0006E097F092AE0CE010E94D505800F911F71
:100CF000DCCF0E94D505D9CF9A01AB01770F660BE7
:100D0000770B0E9440060895DC01ED91FC91028072
:100D1000F381E02D42E050E060E571E0099508952F
:100D20000F931F93CF93DF93EC010E947C068C01FD
:100D3000CE010E948406800F911FDF91CF911F91F9
:100D40000F9108950F931F93CF93DF93EC010E94AF
:100D500019028C01CE010E948406800F911FDF9141
:100D6000CF911F910F9108956115710581F0FB01DD
:100D700001900020E9F73197AF01461B570BDC01CA
:100D8000ED91FC910280F381E02D0995089590E0AA
:100D900080E008950F931F93CF93DF93EC010E949F
:100DA000B4068C01CE010E948406800F911FDF9152
:100DB000CF911F910F910895F89410928000E1E86F
:100DC000F0E01082109285001092840088E09DE38C
:100DD00090938900809388008081886080838081DF
:100DE00085608083EFE6F0E0808182608083789484
:100DF00063E571E08BEA95E00E94CA060895E8E693
:100E0000F0E0808181608083EBE6F0E080818360A8
:100E100080836CE771E08BEA95E00E94CA06089532
:100E200026E040E052EC61E070E08BEA95E00E9441
:100E3000D50260EB71E08BEA95E00E94CA0662E0A1
:100E400088E00E94470162E089E00E94470161E07A
:100E50008DE00E94470161E087E00E94470161E068
:100E600086E00E94470160E08DE00E94140160E08E
:100E700087E00E94140160E086E00E9414010E9455
:100E8000FF060E94DC0688E00E94E70021E0892B33
:100E900009F420E02093000189E00E94E70021E0AE
:100EA000892B09F420E0E0E0F1E021838081828356
:100EB00023831092A6051092A50510929A056CED59
:100EC00071E08BEA95E00E94CA066CEF71E08BEA54
:100ED00095E00E94CA066DE272E08BEA95E00E94FE
:100EE000CA0608950E9410070895CF92DF92EF92EC
:100EF000FF920F931F93CF93DF9300D000D000D0C9
:100F0000CDB7DEB70E94D6016B017C018091A705A9
:100F10009091A805A091A905B091AA05A7019601F5
:100F2000281B390B4A0B5B0BDA01C901883E934041
:100F3000A105B10570F08091A5059091A605892BBA
:100F4000B9F4C092A705D092A805E092A905F09245
:100F5000AA0526960FB6F894DEBF0FBECDBFDF916F
:100F6000CF911F910F91FF90EF90DF90CF90089558
:100F70006DE572E08BEA95E00E94B4066091A505EC
:100F80007091A605CE0101960E94AC05BE016F5F6F
:100F90007F4F8BEA95E00E941902CE0101960E94D4
:100FA000720566E672E08BEA95E00E94B4068091D5
:100FB00000018823B9F169E572E08BEA95E00E94AF
:100FC000B40662E772E08BEA95E00E94B406809175
:100FD0000101882351F16BE572E08BEA95E00E94F4
:100FE000B40661E872E08BEA95E00E94B40600E086
:100FF00011E0F801648575854AE050E08BEA95E0E0
:101000000E947C066BE872E08BEA95E00E94B406D1
:10101000F801668577854AE050E08BEA95E00E940A
:1010200090068FCF6BE572E0C8CF69E572E0D5CF4F
:101030000F931F93CF93DF9300D000D000D0CDB794
:10104000DEB763EB72E08BEA95E00E94CA066AECB9
:1010500072E08BEA95E00E94B4066091A50570915C
:10106000A605CE0101960E94AC05BE016F5F7F4FC1
:101070008BEA95E00E94A206CE0101960E947205BD
:1010800062ED72E08BEA95E00E94B40680919A05C9
:10109000882309F48BC067E972E08BEA95E00E942F
:1010A000CA066AED72E08BEA95E00E94B406809170
:1010B0009B05882309F47DC067E972E08BEA95E01F
:1010C0000E94CA0669EE72E08BEA95E00E94B406BF
:1010D00080910001882309F46FC060EA72E08BEA16
:1010E00095E00E94CA0665E772E08BEA95E00E94EF
:1010F000B40680910101811162C06CEA72E08BEA52
:1011000095E00E94CA0669EF72E08BEA95E00E94C2
:10111000B40600E011E0F801648575854AE050E00E
:101120008BEA95E00E947C0667E073E08BEA95E02D
:101130000E94CA0661E972E08BEA95E00E94B4065B
:10114000F801668577854AE050E08BEA95E00E94D9
:1011500090066BE073E08BEA95E00E94B4060E9473
:10116000D60128EE33E040E050E00E94730EBA0151
:10117000A9012AE030E08BEA95E00E94310664E1A3
:1011800073E08BEA95E00E94CA066DE173E08BEA9A
:1011900095E00E94CA0626960FB6F894DEBF0FBEF1
:1011A000CDBFDF91CF911F910F9108956BE972E050
:1011B00074CF6BE972E082CF6EE972E090CF67EA9C
:1011C00072E09DCFCF93DF9300D000D000D0CDB799
:1011D000DEB78BEA95E00E94BE02892B49F4269681
:1011E0000FB6F894DEBF0FBECDBFDF91CF9108954B
:1011F0006BEA75E0CE0101960E948F05CE01019643
:101200000E942D04CE0101960E94840464E471E0E2
:10121000CE0101960E9498048823A1F081E080937A
:101220009A0581E090E09093A6058093A50563E37D
:1012300073E08BEA95E00E94CA06CE0101960E94F7
:101240007205CDCF6AE573E0CE0101960E94980445
:101250008823B9F0EAE9F5E0108211821092A60520
:101260001092A50560E087E00E94140160E086E02E
:101270000E94140161E673E08BEA95E00E94CA06C1
:10128000DCCF6BEA73E0CE0101960E9498048823BC
:1012900019F00E941808D1CF6EE773E08BEA95E051
:1012A0000E94CA06CACFCF92DF92EF92FF920F93AD
:1012B0001F93CF93DF93CDB7DEB72C970FB6F8947B
:1012C000DEBF0FBECDBF0091A5051091A605013070
:1012D000110509F45DC008F453C00230110509F48A
:1012E000A1C00330110509F409C18091A5059091B1
:1012F000A60580179107A9F16CEF74E08BEA95E0E1
:101300000E94B4066091A5057091A605CE010796CE
:101310000E94AC05BE01695F7F4F8BEA95E00E9499
:101320001902CE0107960E94720564E175E08BEA0E
:1013300095E00E94B406B801CE0101960E94AC056A
:10134000BE016F5F7F4F8BEA95E00E94A206CE013F
:1013500001960E9472051093A6050093A5050E94B0
:10136000D2032C960FB6F894DEBF0FBECDBFDF912F
:10137000CF911F910F91FF90EF90DF90CF90089544
:1013800080919A05882309F4B0CF01E010E0ADCF39
:1013900080919A05882309F4D9C0809100018111B8
:1013A00026C080910E0190910F01853F914024F05D
:1013B00080910101811124C080910C0190910D0157
:1013C000092E000CAA0BBB0B8F319105A105B105AD
:1013D00004F50F97A105B1050CF087CF62E274E028
:1013E0008BEA95E00E94CA0602E010E07ECF62EB35
:1013F00073E08BEA95E00E94CA0602E010E075CF28
:1014000069ED73E08BEA95E00E94CA0602E010E005
:101410006CCF6DEF73E08BEA95E00E94CA0602E0A4
:1014200010E063CF80919A05882309F492C08091DF
:101430000001882321F0909101019923E1F1882393
:1014400039F020910E0130910F01253F314004F514
:10145000811107C020910E0130910F01253F3140CD
:101460003CF020910C0130910D012F31310584F4B5
:10147000811107C020910E0130910F01253F3140AD
:101480006CF120910C0130910D012F30310534F5B4
:101490000E94D601EAE9F5E063837483858396832D
:1014A00081E081836FE674E08BEA95E00E94CA06D2
:1014B00003E010E01ACF0E94D601EAE9F5E0638369
:1014C00074838583968381E0818366E474E08BEA8C
:1014D00095E00E94CA0603E010E007CF811105CF16
:1014E00080910101882309F400CF6EE974E08BEA52
:1014F00095E00E94CA0601E010E0F7CE80919A05BF
:10150000811105C010929B0510E000E0EECE0E9414
:10151000D601C0909D05D0909E05E0909F05F0906B
:10152000A0056C197D098E099F09613177428105FB
:10153000910508F4DACE10929B056DEC74E08BEA0D
:1015400095E00E94CA0601E010E0CFCE10E000E076
:10155000CCCE10E000E0C9CECF92DF92EF92FF92A6
:101560000F931F93CF93DF9380919805811109C04A
:10157000DF91CF911F910F91FF90EF90DF90CF906F
:1015800008950E94D6016B017C01C0919705CC2380
:10159000B9F08091040190910501A0910601B091EC
:1015A0000701A7019601281B390B4A0B5B0BDA01D7
:1015B000C901C397A105B10528F5C0E010929705B0
:1015C000D0919605DD23B1F0809108019091090139
:1015D000A0910A01B0910B01A7019601281B390BBC
:1015E0004A0B5B0BDA01C901C397A105B10588F568
:1015F0001092960510929805CC2309F4B9CF0E9459
:101600005309B6CFE0E0F1E08081828388E00E9458
:10161000E70021E0892B09F420E000E011E0F80167
:101620002083C482D582E682F78269E175E08BEA85
:1016300095E00E94B406F8018081882339F060EAC1
:1016400072E08BEA95E00E94CA06B8CF6EE972E0BC
:10165000F8CFE0E0F1E08181838389E00E94E70038
:1016600021E0892B09F420E000E011E0F80121835A
:10167000C086D186E286F38661E375E08BEA95E069
:101680000E94B406F8018181882341F067EA72E084
:101690008BEA95E00E94CA06CD2FAACF6CEA72E0D1
:1016A000F7CFCF92DF92EF92FF92CF93DF930E941A
:1016B000D6016B017C018091100190911101A091E4
:1016C0001201B0911301A7019601281B390B4A0B97
:1016D0005B0BDA01C901803D9740A105B10538F4E3
:1016E000DF91CF91FF90EF90DF90CF9008958EE043
:1016F0000E948601BC01990F880B990B0E94440D32
:101700009B01AC0160E070EC8FE794E40E94080F4D
:1017100020E030E040E85FE30E949B0E9B01AC01BB
:1017200060E070E080E89FE30E94080F0E94B80F1D
:1017300020E030EE46E755E40E94080F2FE03FEC32
:101740004BE55BE30E949C0E9B01AC0160E070E006
:1017500080E89FE30E94080F23E333E948E853E45D
:101760000E949B0EC0E0D1E00E947A0F7D876C87BB
:101770008FE00E9486019F878E87C88AD98AEA8A6D
:10178000FB8A67E475E08BEA95E00E94B4066C85FD
:101790007D854AE050E08BEA95E00E947C066EE58C
:1017A00075E08BEA95E00E94B4066E857F854AE07D
:1017B00050E08BEA95E00E94900692CF80919905C7
:1017C000811101C0089560919C058DE00E94140173
:1017D0000E94510B8091A5059091A605019749F0B3
:1017E0008091A5059091A605029751F01092990558
:1017F000E9CF6AE675E08BEA95E00E94CA06F0CF71
:1018000060919C0587E00E941401F0CF0E94AC0A11
:101810000E94E2080E9453090E94DE0B0E94060407
:101820000E94750708951F920F920FB60F92112410
:101830000F931F932F933F934F935F936F937F93D8
:101840008F939F93AF93BF9300914D0610914E06D7
:1018500020914F063091500690914C06B901A80195
:101860004F5F5F4F6F4F7F4F83E0890F8D3740F0A1
:1018700086E8890FB901A8014E5F5F4F6F4F7F4F18
:1018800080934C0640934D0650934E0660934F064E
:10189000709350068091480690914906A0914A069F
:1018A000B0914B060196A11DB11D809348069093FF
:1018B0004906A0934A06B0934B06BF91AF919F9102
:1018C0008F917F916F915F914F913F912F911F91D8
:1018D0000F910F900FBE0F901F9018950E949B01C3
:1018E0000E9472070E94060C0E94C603FBCF6FEF96
:1018F0007FEF81E090E00E94580208951F920F92BE
:101900000FB60F9211242F933F934F935F936F93D2
:101910007F938F939F93AF93BF93EF93FF938BEA44
:1019200095E00E943703FF91EF91BF91AF919F9196
:101930008F917F916F915F914F913F912F910F9078
:101940000FBE0F901F9018951F920F920FB60F9217
:1019500011242F938F939F93AF93BF93EF93FF9394
:10196000E091BB05F091BC05808182FD14C0EBEADB
:10197000F5E0A689B7892C91818D8F5F8F73928D49
:10198000891771F0DF01E18DF0E0E555FA4F258F01
:1019900059968C9305C0E091C105F091C2058081F4
:1019A000FF91EF91BF91AF919F918F912F910F90E8
:1019B0000FBE0F901F9018951F920F920FB60F92A7
:1019C00011248F939F93EF93FF9391E09093990548
:1019D000EAE9F5E0828189278283FF91EF919F9167
:1019E0008F910F900FBE0F901F9018951F920F921E
:1019F0000FB60F9211242F933F934F935F936F93E2
:101A00007F938F939F93AF93BF93CF93EF93FF9366
:101A100081E08093980588E00E94E700C1E0892B6F
:101A200009F4C0E089E00E94E70021E0892B09F475
:101A300020E0809100018C1719F081E080939705D8
:101A400080910101821719F081E080939605FF9142
:101A5000EF91CF91BF91AF919F918F917F916F91B6
:101A60005F914F913F912F910F900FBE0F901F905C
:101A7000189591110C94E80D803219F08950855019
:101A8000C8F70895E89409C097FB3EF490958095B7
:101A9000709561957F4F8F4F9F4F9923A9F0F92F34
:101AA00096E9BB279395F695879577956795B795B2
:101AB000F111F8CFFAF4BB0F11F460FF1BC06F5F98
:101AC0007F4F8F4F9F4F16C0882311F096E911C0AA
:101AD000772321F09EE8872F762F05C0662371F0CB
:101AE00096E8862F70E060E02AF09A95660F771FDF
:101AF000881FDAF7880F9695879597F908950E94C1
:101B0000F40D38F00E94FB0D20F0952311F00C9499
:101B1000EB0D0C94F10D11240C94360E0E94130E53
:101B200070F3959FC1F3950F50E0551F629FF00130
:101B3000729FBB27F00DB11D639FAA27F00DB11D49
:101B4000AA1F649F6627B00DA11D661F829F2227D2
:101B5000B00DA11D621F739FB00DA11D621F839F59
:101B6000A00D611D221F749F3327A00D611D231F2F
:101B7000849F600D211D822F762F6A2F11249F577D
:101B800050409AF0F1F088234AF0EE0FFF1FBB1F80
:101B9000661F771F881F91505040A9F79E3F51053F
:101BA00080F00C94EB0D0C94360E5F3FE4F3983EFE
:101BB000D4F3869577956795B795F795E7959F5FE9
:101BC000C1F7FE2B880F911D9695879597F908957B
:101BD00099278827089597F99F6780E870E060E06B
:101BE00008959FEF80EC089500240A9416161706B6
:101BF00018060906089500240A94121613061406FE
:101C000005060895092E0394000C11F4882352F060
:101C1000BB0F40F4BF2B11F460FF04C06F5F7F4F18
:101C20008F4F9F4F089557FD9058440F551F59F0FF
:101C30005F3F71F04795880F97FB991F61F09F3FB9
:101C400079F087950895121613061406551FF2CFE2
:101C50004695F1DF08C0161617061806991FF1CF32
:101C600086957105610508940895E894BB27662759
:101C70007727CB0197F908952F923F924F925F9269
:101C80006F927F928F929F92AF92BF92CF92DF928C
:101C9000EF92FF920F931F93CF93DF93CDB7DEB7F1
:101CA000CA1BDB0B0FB6F894DEBF0FBECDBF099485
:101CB0002A88398848885F846E847D848C849B84DC
:101CC000AA84B984C884DF80EE80FD800C811B81EA
:101CD000AA81B981CE0FD11D0FB6F894DEBF0FBE19
:101CE000CDBFED010895A1E21A2EAA1BBB1BFD0179
:101CF0000DC0AA1FBB1FEE1FFF1FA217B307E407EB
:101D0000F50720F0A21BB30BE40BF50B661F771F42
:101D1000881F991F1A9469F7609570958095909522
:101D20009B01AC01BD01CF010895EE0FFF1F05908F
:101D3000F491E02D09945058BB27AA270E94B30EB6
:101D40000C94020E0E94F40D38F00E94FB0D20F05E
:101D500039F49F3F19F426F40C94F10D0EF4E0953C
:101D6000E7FB0C94EB0DE92F0E94130E58F3BA1702
:101D7000620773078407950720F079F4A6F50C94A1
:101D8000350E0EF4E0950B2EBA2FA02D0B01B901E4
:101D900090010C01CA01A0011124FF27591B99F0E1
:101DA000593F50F4503E68F11A16F040A22F232FED
:101DB000342F4427585FF3CF469537952795A7953D
:101DC000F0405395C9F77EF41F16BA0B620B730BE4
:101DD000840BBAF09150A1F0FF0FBB1F661F771F55
:101DE000881FC2F70EC0BA0F621F731F841F48F40A
:101DF000879577956795B795F7959E3F08F0B0CF93
:101E00009395880F08F09927EE0F97958795089579
:101E10000E941C0F0C94020E0E94FB0D58F00E94B1
:101E2000F40D40F029F45F3F29F00C94EB0D5111B3
:101E30000C94360E0C94F10D0E94130E68F3992346
:101E4000B1F3552391F3951B550BBB27AA276217B6
:101E50007307840738F09F5F5F4F220F331F441FC3
:101E6000AA1FA9F335D00E2E3AF0E0E832D09150F7
:101E70005040E695001CCAF72BD0FE2F29D0660FE4
:101E8000771F881FBB1F261737074807AB07B0E827
:101E900009F0BB0B802DBF01FF2793585F4F3AF02D
:101EA0009E3F510578F00C94EB0D0C94360E5F3F7D
:101EB000E4F3983ED4F3869577956795B795F795B3
:101EC0009F5FC9F7880F911D9695879597F908959B
:101ED000E1E0660F771F881FBB1F62177307840737
:101EE000BA0720F0621B730B840BBA0BEE1F88F746
:101EF000E09508950E94810F6894B1110C94360EFC
:101F000008950E941B0E88F09F5798F0B92F9927CB
:101F1000B751B0F0E1F0660F771F881F991F1AF0D4
:101F2000BA95C9F714C0B13091F00E94350EB1E0F6
:101F300008950C94350E672F782F8827B85F39F0F5
:101F4000B93FCCF3869577956795B395D9F73EF46D
:101F500090958095709561957F4F8F4F9F4F089515
:101F600016F00C9400100C94F10D68940C94EB0D89
:101F70000E941B0EA8F39923C1F3AEF3DF93CF9316
:101F80001F930F93FF92C92FDD2788232AF02197F3
:101F9000660F771F881FDAF720E030E040E85FEB3C
:101FA0009FE3883920F0803E38F021968F770E9499
:101FB0009C0EE8E6F0E004C00E949C0EE5E9F0E02B
:101FC0000E940E108B01BE01EC01FB2E6F577109B0
:101FD0007595771F880B990B0E94440D28E132E715
:101FE00041E35FE30E948E0DAF2D9801AE01FF909B
:101FF0000F911F91CF91DF910E94B30E0C94020EAE
:102000009F3F31F0915020F4879577956795B7956C
:10201000880F911D9695879597F90895DF93CF9333
:102020001F930F93FF92EF92DF927B018C016894D4
:1020300006C0DA2EEF010E948E0DFE01E894A591F4
:102040002591359145915591A6F3EF010E94B30E6C
:10205000FE019701A801DA9469F7DF90EF90FF90F5
:102060000F911F91CF91DF9108950F931F93CF93FD
:10207000DF938230910510F482E090E0E091530606
:10208000F091540630E020E0B0E0A0E0309799F401
:102090002115310509F44AC0281B390B24303105BC
:1020A000D8F58A819B816115710589F1FB019383C4
:1020B0008283FE0111C04081518102811381481742
:1020C0005907E0F04817590799F4109761F01296F4
:1020D0000C93129713961C933296CF01DF91CF91F8
:1020E0001F910F9108950093530610935406F4CF57
:1020F0002115310551F04217530738F0A901DB01D2
:102100009A01BD01DF01F801C1CFEF01F9CF909332
:10211000540680935306CDCFFE01E20FF31F819347
:1021200091932250310939832883D7CF20915106CA
:1021300030915206232B41F4209116013091170162
:1021400030935206209351062091140130911501CD
:102150002115310541F42DB73EB74091180150913A
:102160001901241B350BE0915106F0915206E2173C
:10217000F307A0F42E1B3F0B2817390778F0AC01AA
:102180004E5F5F4F2417350748F04E0F5F1F509387
:10219000520640935106819391939FCFF0E0E0E087
:1021A0009CCFCF93DF930097E9F0FC013297138225
:1021B0001282A0915306B0915406ED0130E020E068
:1021C0001097A1F420813181820F931F2091510635
:1021D000309152062817390709F061C0F093520672
:1021E000E0935106DF91CF910895EA01CE17DF0702
:1021F000E8F54A815B819E0141155105B1F7E9017E
:10220000FB83EA8349915991C40FD51FEC17FD0751
:1022100061F4808191810296840F951FE901998371
:102220008883828193819B838A83F0E0E0E0129629
:102230008D919C9113970097B9F52D913C91119731
:10224000CD010296820F931F2091510630915206C4
:102250002817390739F6309751F510925406109225
:102260005306B0935206A0935106BCCFD383C283CA
:1022700040815181840F951FC817D90761F44E5FC3
:102280005F4F88819981480F591F518340838A810C
:102290009B81938382832115310509F0B0CFF093A0
:1022A0005406E09353069ECFFD01DC01C0CF13829C
:1022B0001282D7CFB0E0A0E0E0E6F1E10C943E0E50
:1022C0008C01009751F4CB010E9435108C01C8019C
:1022D000CDB7DEB7E0E10C945A0EFC01E60FF71F14
:1022E0009C0122503109E217F30708F49DC0D9017F
:1022F000CD91DC911197C617D70798F0C530D1055D
:1023000030F3CE0104978617970708F3C61BD70B47
:102310002297C193D1936D937C93CF010E94D110EA
:10232000D6CF5B01AC1ABD0A4C018C0E9D1EA0914C
:102330005306B0915406512C412CF12CE12C1097EE
:1023400031F580915106909152068815990509F052
:102350005CC04616570608F058C080911401909151
:102360001501009741F48DB79EB740911801509127
:102370001901841B950BE817F90708F055C0F09375
:102380005206E0935106F90171836083A0CF8D91CD
:102390009C91119712966C90129713967C901397BC
:1023A000A815B90559F56C0142E0C40ED11CCA1438
:1023B000DB0420F1AC014A195B09DA01129615978A
:1023C00080F06282738251834083D9016D937C9344
:1023D000E114F10471F0D7011396FC93EE93129778
:1023E00076CF22968C0F9D1FF90191838083F30194
:1023F000EFCFF0935406E093530669CF4816590681
:1024000008F42C017D01D3019ACFCB010E94351035
:102410007C01009749F0AE01B8010E941F12C8016B
:102420000E94D110870153CF10E000E050CF9111EE
:10243000089581568A5108F4805285580895FB0109
:10244000DC0102C001900D9241505040D8F7089530
:10245000FB01DC018D91019080190110D9F3990BDA
:102460000895FB01DC0101900D920020E1F7089531
:04247000F894FFCF0E
:102474000001000000000000000000000000000057
:102484000000000000005506800000000000590311
:1024940028028B02A303BE029C02B00249444C45AD
:1024A400004D4F4E49544F52494E4700414C4552FE
:1024B4005400414C41524D00554E4B4E4F574E0027
:1024C4000D0A0054696D65723120636F6E66696729
:1024D4007572656420666F7220312D7365636F6E4B
:1024E4006420696E74657276616C73005043492090
:1024F400636F6E6669677572656420666F722070BB
:10250400696E7320443820285043494E54302920A2
:10251400616E6420443920285043494E54312900C7
:102524003D3D3D20486F6D65204D6F6E69746F723F
:10253400696E672053797374656D20496E69746997
:10254400616C6973696E67203D3D3D005379737416
:10255400656D20696E697469616C69736564207363
:1025640075636365737366756C6C790053656E642B
:10257400202741524D2720746F2061726D207468AA
:10258400652073797374656D2C2027444953415237
:102594004D2720746F2064697361726D003D3D3D69
:1025A4003D3D3D3D3D3D3D3D3D3D3D3D3D3D3D3D57
:1025B4003D3D3D3D3D3D3D3D3D3D3D3D3D3D3D3D47
:1025C4003D3D3D3D3D3D3D3D0031003000535441D6
:1025D4005455533A2000207C204D6F74696F6E3A35
:1025E4002000207C2047617320416C6572743A207E
:1025F40000207C2054656D703A2000C2B043207CDA
:10260400204761733A2000594553004E4F00494E0C
:1026140041435449564500534146450044414E47C1
:102624004552000A3D3D3D2053595354454D2053D6
:102634005441545553203D3D3D0053746174653AF3
:10264400200041726D65643A2000416C61726D2016
:102654004163746976653A20004D6F74696F6E202A
:1026640053656E736F723A200054656D70657261C4
:10267400747572653A2000C2B04300557074696D78
:10268400653A2000207365636F6E6473003D3D3DC1
:102694003D3D3D3D3D3D3D3D3D3D3D3D3D3D3D3D66
:1026A4003D0A0053595354454D3A2041726D6564B7
:1026B400202D204D6F6E69746F72696E67206D6F87
:1026C4006465206163746976650044495341524DE1
:1026D4000053595354454D3A2044697361726D65F2
:1026E40064202D2049646C65206D6F646500535926
:1026F4005354454D3A20556E6B6E6F776E20636F61
:102704006D6D616E642E205573652041524D2C20F1
:1027140044495341524D2C206F7220535441545517
:10272400530053544154453A20496E747275736989
:102734006F6E206465746563746564202D20416C3C
:10274400657274206D6F64650053544154453A209A
:102754004869676820676173206C6576656C7320CF
:102764002D20416C657274206D6F64650053544173
:1027740054453A20486967682074656D70657261D4
:1027840074757265202D20416C657274206D6F64C0
:10279400650053544154453A204C6F772074656D5D
:1027A4007065726174757265202D20416C65727458
:1027B400206D6F64650053544154453A2044616E62
:1027C4006765726F757320676173206C6576656CDD
:1027D40073202D20416C61726D206D6F6465005310
:1027E400544154453A204D756C7469706C6520737E
:1027F400656E736F7273207472696767657265645E
:10280400202D20416C61726D206D6F6465005354FE
:102814004154453A2053656E736F727320636C653F
:102824006172202D2052657475726E696E67207412
:102834006F206D6F6E69746F72696E6700535441D7
:1028440054453A20416C61726D2074696D656F75F1
:1028540074202D2052657475726E696E6720746FD2
:10286400206D6F6E69746F72696E670053544154C2
:10287400453A205472616E736974696F6E20667292
:102884006F6D200020746F200053454E534F523A11
:1028940020504952206465746563746F72203D2032
:1028A4000053454E534F523A204761732073656E6F
:1028B400736F72203D200053454E534F523A2054BB
:1028C400656D7065726174757265203D2000C2B0DB
:1028D400433B20476173203D200054494D45523A03
:1028E40020506572696F64696320636865636B2057
:1028F4002D2053797374656D206F706572617469EE
:062904006F6E616C000023
:00000001FF
